{
  "_format": "hh-sol-artifact-1",
  "contractName": "SimpleBank",
  "sourceName": "contracts/simpleBank.sol",
  "abi": [
    {
      "inputs": [
        {
          "internalType": "address",
          "name": "addr",
          "type": "address"
        }
      ],
      "stateMutability": "nonpayable",
      "type": "constructor"
    },
    {
      "inputs": [],
      "name": "_token",
      "outputs": [
        {
          "internalType": "address",
          "name": "",
          "type": "address"
        }
      ],
      "stateMutability": "view",
      "type": "function"
    },
    {
      "inputs": [
        {
          "internalType": "uint256",
          "name": "amount",
          "type": "uint256"
        }
      ],
      "name": "deposit",
      "outputs": [],
      "stateMutability": "nonpayable",
      "type": "function"
    },
    {
      "inputs": [
        {
          "internalType": "address",
          "name": "",
          "type": "address"
        }
      ],
      "name": "deposits",
      "outputs": [
        {
          "internalType": "uint256",
          "name": "",
          "type": "uint256"
        }
      ],
      "stateMutability": "view",
      "type": "function"
    },
    {
      "inputs": [
        {
          "internalType": "uint256",
          "name": "amount",
          "type": "uint256"
        }
      ],
      "name": "withdraw",
      "outputs": [],
      "stateMutability": "nonpayable",
      "type": "function"
    }
  ],
  "bytecode": "0x608060405234801561001057600080fd5b506040516107f43803806107f4833981810160405281019061003291906100db565b806000806101000a81548173ffffffffffffffffffffffffffffffffffffffff021916908373ffffffffffffffffffffffffffffffffffffffff16021790555050610108565b600080fd5b600073ffffffffffffffffffffffffffffffffffffffff82169050919050565b60006100a88261007d565b9050919050565b6100b88161009d565b81146100c357600080fd5b50565b6000815190506100d5816100af565b92915050565b6000602082840312156100f1576100f0610078565b5b60006100ff848285016100c6565b91505092915050565b6106dd806101176000396000f3fe608060405234801561001057600080fd5b506004361061004c5760003560e01c80632e1a7d4d14610051578063b6b55f251461006d578063ecd0c0c314610089578063fc7e286d146100a7575b600080fd5b61006b600480360381019061006691906103c2565b6100d7565b005b610087600480360381019061008291906103c2565b610251565b005b61009161034b565b60405161009e9190610430565b60405180910390f35b6100c160048036038101906100bc9190610477565b61036f565b6040516100ce91906104b3565b60405180910390f35b80600160003373ffffffffffffffffffffffffffffffffffffffff1673ffffffffffffffffffffffffffffffffffffffff168152602001908152602001600020541015610159576040517f08c379a00000000000000000000000000000000000000000000000000000000081526004016101509061052b565b60405180910390fd5b80600160003373ffffffffffffffffffffffffffffffffffffffff1673ffffffffffffffffffffffffffffffffffffffff16815260200190815260200160002060008282546101a8919061057a565b9250508190555060008054906101000a900473ffffffffffffffffffffffffffffffffffffffff1673ffffffffffffffffffffffffffffffffffffffff1663a9059cbb33836040518363ffffffff1660e01b815260040161020a9291906105ae565b6020604051808303816000875af1158015610229573d6000803e3d6000fd5b505050506040513d601f19601f8201168201806040525081019061024d919061060f565b5050565b60008054906101000a900473ffffffffffffffffffffffffffffffffffffffff1673ffffffffffffffffffffffffffffffffffffffff166323b872dd3330846040518463ffffffff1660e01b81526004016102ae9392919061063c565b6020604051808303816000875af11580156102cd573d6000803e3d6000fd5b505050506040513d601f19601f820116820180604052508101906102f1919061060f565b5080600160003373ffffffffffffffffffffffffffffffffffffffff1673ffffffffffffffffffffffffffffffffffffffff16815260200190815260200160002060008282546103419190610673565b9250508190555050565b60008054906101000a900473ffffffffffffffffffffffffffffffffffffffff1681565b60016020528060005260406000206000915090505481565b600080fd5b6000819050919050565b61039f8161038c565b81146103aa57600080fd5b50565b6000813590506103bc81610396565b92915050565b6000602082840312156103d8576103d7610387565b5b60006103e6848285016103ad565b91505092915050565b600073ffffffffffffffffffffffffffffffffffffffff82169050919050565b600061041a826103ef565b9050919050565b61042a8161040f565b82525050565b60006020820190506104456000830184610421565b92915050565b6104548161040f565b811461045f57600080fd5b50565b6000813590506104718161044b565b92915050565b60006020828403121561048d5761048c610387565b5b600061049b84828501610462565b91505092915050565b6104ad8161038c565b82525050565b60006020820190506104c860008301846104a4565b92915050565b600082825260208201905092915050565b7f696e73756666696369656e74206465706f736974000000000000000000000000600082015250565b60006105156014836104ce565b9150610520826104df565b602082019050919050565b6000602082019050818103600083015261054481610508565b9050919050565b7f4e487b7100000000000000000000000000000000000000000000000000000000600052601160045260246000fd5b60006105858261038c565b91506105908361038c565b92508282039050818111156105a8576105a761054b565b5b92915050565b60006040820190506105c36000830185610421565b6105d060208301846104a4565b9392505050565b60008115159050919050565b6105ec816105d7565b81146105f757600080fd5b50565b600081519050610609816105e3565b92915050565b60006020828403121561062557610624610387565b5b6000610633848285016105fa565b91505092915050565b60006060820190506106516000830186610421565b61065e6020830185610421565b61066b60408301846104a4565b949350505050565b600061067e8261038c565b91506106898361038c565b92508282019050808211156106a1576106a061054b565b5b9291505056fea26469706673582212207818c664465d07d49ed8836428829d66c9f9e540ac9f98a83eae4cf36008711364736f6c63430008140033",
  "linkReferences": {},
  "deployedLinkReferences": {}
}