{"contracts/logic_receive.sol":{"Receive_sample":{"abi":[{"inputs":[],"name":"counter","outputs":[{"internalType":"uint256","name":"","type":"uint256"}],"stateMutability":"view","type":"function"},{"stateMutability":"payable","type":"receive"}],"evm":{"bytecode":{"linkReferences":{},"object":"608060405234801561001057600080fd5b5061012e806100206000396000f3fe608060405260043610601f5760003560e01c806361bc221a14604057603b565b36603b5760016000808282546033919060a5565b925050819055005b600080fd5b348015604b57600080fd5b5060526066565b604051605d919060df565b60405180910390f35b60005481565b6000819050919050565b7f4e487b7100000000000000000000000000000000000000000000000000000000600052601160045260246000fd5b600060ae82606c565b915060b783606c565b925082820190508082111560cc5760cb6076565b5b92915050565b60d981606c565b82525050565b600060208201905060f2600083018460d2565b9291505056fea2646970667358221220eed23ed8db0e81092acf74a73bb83a39da5488b63a6837191f96823d47d6383064736f6c63430008140033","opcodes":"PUSH1 0x80 PUSH1 0x40 MSTORE CALLVALUE DUP1 ISZERO PUSH2 0x10 JUMPI PUSH1 0x0 DUP1 REVERT JUMPDEST POP PUSH2 0x12E DUP1 PUSH2 0x20 PUSH1 0x0 CODECOPY PUSH1 0x0 RETURN INVALID PUSH1 0x80 PUSH1 0x40 MSTORE PUSH1 0x4 CALLDATASIZE LT PUSH1 0x1F JUMPI PUSH1 0x0 CALLDATALOAD PUSH1 0xE0 SHR DUP1 PUSH4 0x61BC221A EQ PUSH1 0x40 JUMPI PUSH1 0x3B JUMP JUMPDEST CALLDATASIZE PUSH1 0x3B JUMPI PUSH1 0x1 PUSH1 0x0 DUP1 DUP3 DUP3 SLOAD PUSH1 0x33 SWAP2 SWAP1 PUSH1 0xA5 JUMP JUMPDEST SWAP3 POP POP DUP2 SWAP1 SSTORE STOP JUMPDEST PUSH1 0x0 DUP1 REVERT JUMPDEST CALLVALUE DUP1 ISZERO PUSH1 0x4B JUMPI PUSH1 0x0 DUP1 REVERT JUMPDEST POP PUSH1 0x52 PUSH1 0x66 JUMP JUMPDEST PUSH1 0x40 MLOAD PUSH1 0x5D SWAP2 SWAP1 PUSH1 0xDF JUMP JUMPDEST PUSH1 0x40 MLOAD DUP1 SWAP2 SUB SWAP1 RETURN JUMPDEST PUSH1 0x0 SLOAD DUP2 JUMP JUMPDEST PUSH1 0x0 DUP2 SWAP1 POP SWAP2 SWAP1 POP JUMP JUMPDEST PUSH32 0x4E487B7100000000000000000000000000000000000000000000000000000000 PUSH1 0x0 MSTORE PUSH1 0x11 PUSH1 0x4 MSTORE PUSH1 0x24 PUSH1 0x0 REVERT JUMPDEST PUSH1 0x0 PUSH1 0xAE DUP3 PUSH1 0x6C JUMP JUMPDEST SWAP2 POP PUSH1 0xB7 DUP4 PUSH1 0x6C JUMP JUMPDEST SWAP3 POP DUP3 DUP3 ADD SWAP1 POP DUP1 DUP3 GT ISZERO PUSH1 0xCC JUMPI PUSH1 0xCB PUSH1 0x76 JUMP JUMPDEST JUMPDEST SWAP3 SWAP2 POP POP JUMP JUMPDEST PUSH1 0xD9 DUP2 PUSH1 0x6C JUMP JUMPDEST DUP3 MSTORE POP POP JUMP JUMPDEST PUSH1 0x0 PUSH1 0x20 DUP3 ADD SWAP1 POP PUSH1 0xF2 PUSH1 0x0 DUP4 ADD DUP5 PUSH1 0xD2 JUMP JUMPDEST SWAP3 SWAP2 POP POP JUMP INVALID LOG2 PUSH5 0x6970667358 0x22 SLT KECCAK256 0xEE 0xD2 RETURNDATACOPY 0xD8 0xDB 0xE DUP2 MULMOD 0x2A 0xCF PUSH21 0xA73BB83A39DA5488B63A6837191F96823D47D63830 PUSH5 0x736F6C6343 STOP ADDMOD EQ STOP CALLER "},"methodIdentifiers":{"counter()":"61bc221a"}}}}}