{"contracts/abidecode.sol":{"Decode":{"abi":[{"inputs":[{"internalType":"bytes","name":"data","type":"bytes"}],"name":"decodeExample","outputs":[{"internalType":"address","name":"to","type":"address"},{"internalType":"uint16","name":"amount","type":"uint16"},{"internalType":"uint8","name":"b","type":"uint8"},{"internalType":"uint256","name":"d","type":"uint256"}],"stateMutability":"pure","type":"function"}],"evm":{"bytecode":{"linkReferences":{},"object":"608060405234801561001057600080fd5b506103e5806100206000396000f3fe608060405234801561001057600080fd5b506004361061002b5760003560e01c80632b4324da14610030575b600080fd5b61004a6004803603810190610045919061011c565b610063565b60405161005a94939291906101fc565b60405180910390f35b6000806000803660008787600490809261007f9392919061024b565b9150915081818101906100929190610348565b80965081975082985083995050505050505092959194509250565b600080fd5b600080fd5b600080fd5b600080fd5b600080fd5b60008083601f8401126100dc576100db6100b7565b5b8235905067ffffffffffffffff8111156100f9576100f86100bc565b5b602083019150836001820283011115610115576101146100c1565b5b9250929050565b60008060208385031215610133576101326100ad565b5b600083013567ffffffffffffffff811115610151576101506100b2565b5b61015d858286016100c6565b92509250509250929050565b600073ffffffffffffffffffffffffffffffffffffffff82169050919050565b600061019482610169565b9050919050565b6101a481610189565b82525050565b600061ffff82169050919050565b6101c1816101aa565b82525050565b600060ff82169050919050565b6101dd816101c7565b82525050565b6000819050919050565b6101f6816101e3565b82525050565b6000608082019050610211600083018761019b565b61021e60208301866101b8565b61022b60408301856101d4565b61023860608301846101ed565b95945050505050565b600080fd5b600080fd5b6000808585111561025f5761025e610241565b5b838611156102705761026f610246565b5b6001850283019150848603905094509492505050565b600061029182610169565b9050919050565b6102a181610286565b81146102ac57600080fd5b50565b6000813590506102be81610298565b92915050565b6102cd816101aa565b81146102d857600080fd5b50565b6000813590506102ea816102c4565b92915050565b6102f9816101c7565b811461030457600080fd5b50565b600081359050610316816102f0565b92915050565b610325816101e3565b811461033057600080fd5b50565b6000813590506103428161031c565b92915050565b60008060008060808587031215610362576103616100ad565b5b6000610370878288016102af565b9450506020610381878288016102db565b935050604061039287828801610307565b92505060606103a387828801610333565b9150509295919450925056fea2646970667358221220c707076cb92a8691598563c3bc2e91d71bfc26a58a297dbee535eb4af926638464736f6c63430008140033","opcodes":"PUSH1 0x80 PUSH1 0x40 MSTORE CALLVALUE DUP1 ISZERO PUSH2 0x10 JUMPI PUSH1 0x0 DUP1 REVERT JUMPDEST POP PUSH2 0x3E5 DUP1 PUSH2 0x20 PUSH1 0x0 CODECOPY PUSH1 0x0 RETURN INVALID PUSH1 0x80 PUSH1 0x40 MSTORE CALLVALUE DUP1 ISZERO PUSH2 0x10 JUMPI PUSH1 0x0 DUP1 REVERT JUMPDEST POP PUSH1 0x4 CALLDATASIZE LT PUSH2 0x2B JUMPI PUSH1 0x0 CALLDATALOAD PUSH1 0xE0 SHR DUP1 PUSH4 0x2B4324DA EQ PUSH2 0x30 JUMPI JUMPDEST PUSH1 0x0 DUP1 REVERT JUMPDEST PUSH2 0x4A PUSH1 0x4 DUP1 CALLDATASIZE SUB DUP2 ADD SWAP1 PUSH2 0x45 SWAP2 SWAP1 PUSH2 0x11C JUMP JUMPDEST PUSH2 0x63 JUMP JUMPDEST PUSH1 0x40 MLOAD PUSH2 0x5A SWAP5 SWAP4 SWAP3 SWAP2 SWAP1 PUSH2 0x1FC JUMP JUMPDEST PUSH1 0x40 MLOAD DUP1 SWAP2 SUB SWAP1 RETURN JUMPDEST PUSH1 0x0 DUP1 PUSH1 0x0 DUP1 CALLDATASIZE PUSH1 0x0 DUP8 DUP8 PUSH1 0x4 SWAP1 DUP1 SWAP3 PUSH2 0x7F SWAP4 SWAP3 SWAP2 SWAP1 PUSH2 0x24B JUMP JUMPDEST SWAP2 POP SWAP2 POP DUP2 DUP2 DUP2 ADD SWAP1 PUSH2 0x92 SWAP2 SWAP1 PUSH2 0x348 JUMP JUMPDEST DUP1 SWAP7 POP DUP2 SWAP8 POP DUP3 SWAP9 POP DUP4 SWAP10 POP POP POP POP POP POP POP SWAP3 SWAP6 SWAP2 SWAP5 POP SWAP3 POP JUMP JUMPDEST PUSH1 0x0 DUP1 REVERT JUMPDEST PUSH1 0x0 DUP1 REVERT JUMPDEST PUSH1 0x0 DUP1 REVERT JUMPDEST PUSH1 0x0 DUP1 REVERT JUMPDEST PUSH1 0x0 DUP1 REVERT JUMPDEST PUSH1 0x0 DUP1 DUP4 PUSH1 0x1F DUP5 ADD SLT PUSH2 0xDC JUMPI PUSH2 0xDB PUSH2 0xB7 JUMP JUMPDEST JUMPDEST DUP3 CALLDATALOAD SWAP1 POP PUSH8 0xFFFFFFFFFFFFFFFF DUP2 GT ISZERO PUSH2 0xF9 JUMPI PUSH2 0xF8 PUSH2 0xBC JUMP JUMPDEST JUMPDEST PUSH1 0x20 DUP4 ADD SWAP2 POP DUP4 PUSH1 0x1 DUP3 MUL DUP4 ADD GT ISZERO PUSH2 0x115 JUMPI PUSH2 0x114 PUSH2 0xC1 JUMP JUMPDEST JUMPDEST SWAP3 POP SWAP3 SWAP1 POP JUMP JUMPDEST PUSH1 0x0 DUP1 PUSH1 0x20 DUP4 DUP6 SUB SLT ISZERO PUSH2 0x133 JUMPI PUSH2 0x132 PUSH2 0xAD JUMP JUMPDEST JUMPDEST PUSH1 0x0 DUP4 ADD CALLDATALOAD PUSH8 0xFFFFFFFFFFFFFFFF DUP2 GT ISZERO PUSH2 0x151 JUMPI PUSH2 0x150 PUSH2 0xB2 JUMP JUMPDEST JUMPDEST PUSH2 0x15D DUP6 DUP3 DUP7 ADD PUSH2 0xC6 JUMP JUMPDEST SWAP3 POP SWAP3 POP POP SWAP3 POP SWAP3 SWAP1 POP JUMP JUMPDEST PUSH1 0x0 PUSH20 0xFFFFFFFFFFFFFFFFFFFFFFFFFFFFFFFFFFFFFFFF DUP3 AND SWAP1 POP SWAP2 SWAP1 POP JUMP JUMPDEST PUSH1 0x0 PUSH2 0x194 DUP3 PUSH2 0x169 JUMP JUMPDEST SWAP1 POP SWAP2 SWAP1 POP JUMP JUMPDEST PUSH2 0x1A4 DUP2 PUSH2 0x189 JUMP JUMPDEST DUP3 MSTORE POP POP JUMP JUMPDEST PUSH1 0x0 PUSH2 0xFFFF DUP3 AND SWAP1 POP SWAP2 SWAP1 POP JUMP JUMPDEST PUSH2 0x1C1 DUP2 PUSH2 0x1AA JUMP JUMPDEST DUP3 MSTORE POP POP JUMP JUMPDEST PUSH1 0x0 PUSH1 0xFF DUP3 AND SWAP1 POP SWAP2 SWAP1 POP JUMP JUMPDEST PUSH2 0x1DD DUP2 PUSH2 0x1C7 JUMP JUMPDEST DUP3 MSTORE POP POP JUMP JUMPDEST PUSH1 0x0 DUP2 SWAP1 POP SWAP2 SWAP1 POP JUMP JUMPDEST PUSH2 0x1F6 DUP2 PUSH2 0x1E3 JUMP JUMPDEST DUP3 MSTORE POP POP JUMP JUMPDEST PUSH1 0x0 PUSH1 0x80 DUP3 ADD SWAP1 POP PUSH2 0x211 PUSH1 0x0 DUP4 ADD DUP8 PUSH2 0x19B JUMP JUMPDEST PUSH2 0x21E PUSH1 0x20 DUP4 ADD DUP7 PUSH2 0x1B8 JUMP JUMPDEST PUSH2 0x22B PUSH1 0x40 DUP4 ADD DUP6 PUSH2 0x1D4 JUMP JUMPDEST PUSH2 0x238 PUSH1 0x60 DUP4 ADD DUP5 PUSH2 0x1ED JUMP JUMPDEST SWAP6 SWAP5 POP POP POP POP POP JUMP JUMPDEST PUSH1 0x0 DUP1 REVERT JUMPDEST PUSH1 0x0 DUP1 REVERT JUMPDEST PUSH1 0x0 DUP1 DUP6 DUP6 GT ISZERO PUSH2 0x25F JUMPI PUSH2 0x25E PUSH2 0x241 JUMP JUMPDEST JUMPDEST DUP4 DUP7 GT ISZERO PUSH2 0x270 JUMPI PUSH2 0x26F PUSH2 0x246 JUMP JUMPDEST JUMPDEST PUSH1 0x1 DUP6 MUL DUP4 ADD SWAP2 POP DUP5 DUP7 SUB SWAP1 POP SWAP5 POP SWAP5 SWAP3 POP POP POP JUMP JUMPDEST PUSH1 0x0 PUSH2 0x291 DUP3 PUSH2 0x169 JUMP JUMPDEST SWAP1 POP SWAP2 SWAP1 POP JUMP JUMPDEST PUSH2 0x2A1 DUP2 PUSH2 0x286 JUMP JUMPDEST DUP2 EQ PUSH2 0x2AC JUMPI PUSH1 0x0 DUP1 REVERT JUMPDEST POP JUMP JUMPDEST PUSH1 0x0 DUP2 CALLDATALOAD SWAP1 POP PUSH2 0x2BE DUP2 PUSH2 0x298 JUMP JUMPDEST SWAP3 SWAP2 POP POP JUMP JUMPDEST PUSH2 0x2CD DUP2 PUSH2 0x1AA JUMP JUMPDEST DUP2 EQ PUSH2 0x2D8 JUMPI PUSH1 0x0 DUP1 REVERT JUMPDEST POP JUMP JUMPDEST PUSH1 0x0 DUP2 CALLDATALOAD SWAP1 POP PUSH2 0x2EA DUP2 PUSH2 0x2C4 JUMP JUMPDEST SWAP3 SWAP2 POP POP JUMP JUMPDEST PUSH2 0x2F9 DUP2 PUSH2 0x1C7 JUMP JUMPDEST DUP2 EQ PUSH2 0x304 JUMPI PUSH1 0x0 DUP1 REVERT JUMPDEST POP JUMP JUMPDEST PUSH1 0x0 DUP2 CALLDATALOAD SWAP1 POP PUSH2 0x316 DUP2 PUSH2 0x2F0 JUMP JUMPDEST SWAP3 SWAP2 POP POP JUMP JUMPDEST PUSH2 0x325 DUP2 PUSH2 0x1E3 JUMP JUMPDEST DUP2 EQ PUSH2 0x330 JUMPI PUSH1 0x0 DUP1 REVERT JUMPDEST POP JUMP JUMPDEST PUSH1 0x0 DUP2 CALLDATALOAD SWAP1 POP PUSH2 0x342 DUP2 PUSH2 0x31C JUMP JUMPDEST SWAP3 SWAP2 POP POP JUMP JUMPDEST PUSH1 0x0 DUP1 PUSH1 0x0 DUP1 PUSH1 0x80 DUP6 DUP8 SUB SLT ISZERO PUSH2 0x362 JUMPI PUSH2 0x361 PUSH2 0xAD JUMP JUMPDEST JUMPDEST PUSH1 0x0 PUSH2 0x370 DUP8 DUP3 DUP9 ADD PUSH2 0x2AF JUMP JUMPDEST SWAP5 POP POP PUSH1 0x20 PUSH2 0x381 DUP8 DUP3 DUP9 ADD PUSH2 0x2DB JUMP JUMPDEST SWAP4 POP POP PUSH1 0x40 PUSH2 0x392 DUP8 DUP3 DUP9 ADD PUSH2 0x307 JUMP JUMPDEST SWAP3 POP POP PUSH1 0x60 PUSH2 0x3A3 DUP8 DUP3 DUP9 ADD PUSH2 0x333 JUMP JUMPDEST SWAP2 POP POP SWAP3 SWAP6 SWAP2 SWAP5 POP SWAP3 POP JUMP INVALID LOG2 PUSH5 0x6970667358 0x22 SLT KECCAK256 0xC7 SMOD SMOD PUSH13 0xB92A8691598563C3BC2E91D71B 0xFC 0x26 0xA5 DUP11 0x29 PUSH30 0xBEE535EB4AF926638464736F6C6343000814003300000000000000000000 "},"methodIdentifiers":{"decodeExample(bytes)":"2b4324da"}}}}}