{
  "_format": "hh-sol-artifact-1",
  "contractName": "CheckAddr",
  "sourceName": "contracts/checkaddr.sol",
  "abi": [
    {
      "inputs": [
        {
          "internalType": "address",
          "name": "addr",
          "type": "address"
        }
      ],
      "name": "isContract",
      "outputs": [
        {
          "internalType": "string",
          "name": "",
          "type": "string"
        }
      ],
      "stateMutability": "view",
      "type": "function"
    }
  ],
  "bytecode": "0x608060405234801561001057600080fd5b50610274806100206000396000f3fe608060405234801561001057600080fd5b506004361061002b5760003560e01c80631627905514610030575b600080fd5b61004a6004803603810190610045919061015f565b610060565b604051610057919061021c565b60405180910390f35b606060008273ffffffffffffffffffffffffffffffffffffffff163b036100be576040518060400160405280600381526020017f454f41000000000000000000000000000000000000000000000000000000000081525090506100f7565b6040518060400160405280600881526020017f436f6e747261637400000000000000000000000000000000000000000000000081525090505b919050565b600080fd5b600073ffffffffffffffffffffffffffffffffffffffff82169050919050565b600061012c82610101565b9050919050565b61013c81610121565b811461014757600080fd5b50565b60008135905061015981610133565b92915050565b600060208284031215610175576101746100fc565b5b60006101838482850161014a565b91505092915050565b600081519050919050565b600082825260208201905092915050565b60005b838110156101c65780820151818401526020810190506101ab565b60008484015250505050565b6000601f19601f8301169050919050565b60006101ee8261018c565b6101f88185610197565b93506102088185602086016101a8565b610211816101d2565b840191505092915050565b6000602082019050818103600083015261023681846101e3565b90509291505056fea26469706673582212209b031e0cd6044ca9509143fab00fc7069ea8c70ff0a7db99ca4130e2bb2f6a3e64736f6c63430008140033",
  "linkReferences": {},
  "deployedLinkReferences": {}
}