{
  "_format": "hh-sol-artifact-1",
  "contractName": "ERC20_with_Credentials",
  "sourceName": "contracts/ERC20_with_Credentials.sol",
  "abi": [
    {
      "inputs": [
        {
          "internalType": "uint256",
          "name": "initialSupply",
          "type": "uint256"
        }
      ],
      "stateMutability": "nonpayable",
      "type": "constructor"
    },
    {
      "anonymous": false,
      "inputs": [
        {
          "indexed": true,
          "internalType": "address",
          "name": "owner",
          "type": "address"
        },
        {
          "indexed": true,
          "internalType": "address",
          "name": "spender",
          "type": "address"
        },
        {
          "indexed": false,
          "internalType": "uint256",
          "name": "value",
          "type": "uint256"
        }
      ],
      "name": "Approval",
      "type": "event"
    },
    {
      "anonymous": false,
      "inputs": [
        {
          "indexed": true,
          "internalType": "address",
          "name": "from",
          "type": "address"
        },
        {
          "indexed": true,
          "internalType": "address",
          "name": "to",
          "type": "address"
        },
        {
          "indexed": true,
          "internalType": "uint256",
          "name": "",
          "type": "uint256"
        }
      ],
      "name": "Burn",
      "type": "event"
    },
    {
      "anonymous": false,
      "inputs": [
        {
          "indexed": true,
          "internalType": "address",
          "name": "from",
          "type": "address"
        },
        {
          "indexed": true,
          "internalType": "address",
          "name": "to",
          "type": "address"
        },
        {
          "indexed": true,
          "internalType": "uint256",
          "name": "",
          "type": "uint256"
        }
      ],
      "name": "Mint",
      "type": "event"
    },
    {
      "anonymous": false,
      "inputs": [
        {
          "indexed": true,
          "internalType": "address",
          "name": "from",
          "type": "address"
        },
        {
          "indexed": true,
          "internalType": "address",
          "name": "to",
          "type": "address"
        },
        {
          "indexed": false,
          "internalType": "uint256",
          "name": "value",
          "type": "uint256"
        }
      ],
      "name": "Transfer",
      "type": "event"
    },
    {
      "inputs": [
        {
          "internalType": "address",
          "name": "",
          "type": "address"
        },
        {
          "internalType": "address",
          "name": "",
          "type": "address"
        }
      ],
      "name": "_allowance",
      "outputs": [
        {
          "internalType": "uint256",
          "name": "",
          "type": "uint256"
        }
      ],
      "stateMutability": "view",
      "type": "function"
    },
    {
      "inputs": [
        {
          "internalType": "address",
          "name": "",
          "type": "address"
        }
      ],
      "name": "_balanceOf",
      "outputs": [
        {
          "internalType": "uint256",
          "name": "",
          "type": "uint256"
        }
      ],
      "stateMutability": "view",
      "type": "function"
    },
    {
      "inputs": [
        {
          "internalType": "address",
          "name": "owner",
          "type": "address"
        },
        {
          "internalType": "address",
          "name": "spender",
          "type": "address"
        }
      ],
      "name": "allowance",
      "outputs": [
        {
          "internalType": "uint256",
          "name": "",
          "type": "uint256"
        }
      ],
      "stateMutability": "view",
      "type": "function"
    },
    {
      "inputs": [
        {
          "internalType": "address",
          "name": "spender",
          "type": "address"
        },
        {
          "internalType": "uint256",
          "name": "value",
          "type": "uint256"
        }
      ],
      "name": "approve",
      "outputs": [
        {
          "internalType": "bool",
          "name": "",
          "type": "bool"
        }
      ],
      "stateMutability": "nonpayable",
      "type": "function"
    },
    {
      "inputs": [
        {
          "internalType": "address",
          "name": "account",
          "type": "address"
        }
      ],
      "name": "balanceOf",
      "outputs": [
        {
          "internalType": "uint256",
          "name": "",
          "type": "uint256"
        }
      ],
      "stateMutability": "view",
      "type": "function"
    },
    {
      "inputs": [
        {
          "internalType": "address",
          "name": "from",
          "type": "address"
        },
        {
          "internalType": "uint256",
          "name": "amount",
          "type": "uint256"
        }
      ],
      "name": "burn",
      "outputs": [],
      "stateMutability": "nonpayable",
      "type": "function"
    },
    {
      "inputs": [
        {
          "internalType": "address",
          "name": "to",
          "type": "address"
        },
        {
          "internalType": "uint256",
          "name": "amount",
          "type": "uint256"
        }
      ],
      "name": "mint",
      "outputs": [],
      "stateMutability": "nonpayable",
      "type": "function"
    },
    {
      "inputs": [],
      "name": "name",
      "outputs": [
        {
          "internalType": "string",
          "name": "",
          "type": "string"
        }
      ],
      "stateMutability": "view",
      "type": "function"
    },
    {
      "inputs": [],
      "name": "symbol",
      "outputs": [
        {
          "internalType": "string",
          "name": "",
          "type": "string"
        }
      ],
      "stateMutability": "view",
      "type": "function"
    },
    {
      "inputs": [],
      "name": "totalSupply",
      "outputs": [
        {
          "internalType": "uint256",
          "name": "",
          "type": "uint256"
        }
      ],
      "stateMutability": "view",
      "type": "function"
    },
    {
      "inputs": [],
      "name": "totalSupply_",
      "outputs": [
        {
          "internalType": "uint256",
          "name": "",
          "type": "uint256"
        }
      ],
      "stateMutability": "view",
      "type": "function"
    },
    {
      "inputs": [
        {
          "internalType": "address",
          "name": "to",
          "type": "address"
        },
        {
          "internalType": "uint256",
          "name": "value",
          "type": "uint256"
        }
      ],
      "name": "transfer",
      "outputs": [
        {
          "internalType": "bool",
          "name": "",
          "type": "bool"
        }
      ],
      "stateMutability": "nonpayable",
      "type": "function"
    },
    {
      "inputs": [
        {
          "internalType": "address",
          "name": "from",
          "type": "address"
        },
        {
          "internalType": "address",
          "name": "to",
          "type": "address"
        },
        {
          "internalType": "uint256",
          "name": "value",
          "type": "uint256"
        }
      ],
      "name": "transferFrom",
      "outputs": [
        {
          "internalType": "bool",
          "name": "",
          "type": "bool"
        }
      ],
      "stateMutability": "nonpayable",
      "type": "function"
    }
  ],
  "bytecode": "0x60806040526040518060400160405280600c81526020017f425f7465737420546f6b656e0000000000000000000000000000000000000000815250600090816200004a919062000393565b506040518060400160405280600481526020017f42544f4b000000000000000000000000000000000000000000000000000000008152506001908162000091919062000393565b503480156200009f57600080fd5b5060405162001805380380620018058339818101604052810190620000c59190620004b0565b80600281905550600254600360003373ffffffffffffffffffffffffffffffffffffffff1673ffffffffffffffffffffffffffffffffffffffff1681526020019081526020016000208190555050620004e2565b600081519050919050565b7f4e487b7100000000000000000000000000000000000000000000000000000000600052604160045260246000fd5b7f4e487b7100000000000000000000000000000000000000000000000000000000600052602260045260246000fd5b600060028204905060018216806200019b57607f821691505b602082108103620001b157620001b062000153565b5b50919050565b60008190508160005260206000209050919050565b60006020601f8301049050919050565b600082821b905092915050565b6000600883026200021b7fffffffffffffffffffffffffffffffffffffffffffffffffffffffffffffffff82620001dc565b620002278683620001dc565b95508019841693508086168417925050509392505050565b6000819050919050565b6000819050919050565b6000620002746200026e62000268846200023f565b62000249565b6200023f565b9050919050565b6000819050919050565b620002908362000253565b620002a86200029f826200027b565b848454620001e9565b825550505050565b600090565b620002bf620002b0565b620002cc81848462000285565b505050565b5b81811015620002f457620002e8600082620002b5565b600181019050620002d2565b5050565b601f82111562000343576200030d81620001b7565b6200031884620001cc565b8101602085101562000328578190505b620003406200033785620001cc565b830182620002d1565b50505b505050565b600082821c905092915050565b6000620003686000198460080262000348565b1980831691505092915050565b600062000383838362000355565b9150826002028217905092915050565b6200039e8262000119565b67ffffffffffffffff811115620003ba57620003b962000124565b5b620003c6825462000182565b620003d3828285620002f8565b600060209050601f8311600181146200040b5760008415620003f6578287015190505b62000402858262000375565b86555062000472565b601f1984166200041b86620001b7565b60005b8281101562000445578489015182556001820191506020850194506020810190506200041e565b8683101562000465578489015162000461601f89168262000355565b8355505b6001600288020188555050505b505050505050565b600080fd5b6200048a816200023f565b81146200049657600080fd5b50565b600081519050620004aa816200047f565b92915050565b600060208284031215620004c957620004c86200047a565b5b6000620004d98482850162000499565b91505092915050565b61131380620004f26000396000f3fe608060405234801561001057600080fd5b50600436106100cf5760003560e01c806370a082311161008c578063a9059cbb11610066578063a9059cbb14610214578063cca3e83214610244578063dd336c1214610274578063dd62ed3e146102a4576100cf565b806370a08231146101aa57806395d89b41146101da5780639dc29fac146101f8576100cf565b806306fdde03146100d4578063095ea7b3146100f257806318160ddd1461012257806323b872dd14610140578063324536eb1461017057806340c10f191461018e575b600080fd5b6100dc6102d4565b6040516100e99190610e1b565b60405180910390f35b61010c60048036038101906101079190610ed6565b610362565b6040516101199190610f31565b60405180910390f35b61012a610454565b6040516101379190610f5b565b60405180910390f35b61015a60048036038101906101559190610f76565b61045e565b6040516101679190610f31565b60405180910390f35b6101786107be565b6040516101859190610f5b565b60405180910390f35b6101a860048036038101906101a39190610ed6565b6107c4565b005b6101c460048036038101906101bf9190610fc9565b610892565b6040516101d19190610f5b565b60405180910390f35b6101e26108db565b6040516101ef9190610e1b565b60405180910390f35b610212600480360381019061020d9190610ed6565b610969565b005b61022e60048036038101906102299190610ed6565b610aba565b60405161023b9190610f31565b60405180910390f35b61025e60048036038101906102599190610fc9565b610cc7565b60405161026b9190610f5b565b60405180910390f35b61028e60048036038101906102899190610ff6565b610cdf565b60405161029b9190610f5b565b60405180910390f35b6102be60048036038101906102b99190610ff6565b610d04565b6040516102cb9190610f5b565b60405180910390f35b600080546102e190611065565b80601f016020809104026020016040519081016040528092919081815260200182805461030d90611065565b801561035a5780601f1061032f5761010080835404028352916020019161035a565b820191906000526020600020905b81548152906001019060200180831161033d57829003601f168201915b505050505081565b600081600460003373ffffffffffffffffffffffffffffffffffffffff1673ffffffffffffffffffffffffffffffffffffffff16815260200190815260200160002060008573ffffffffffffffffffffffffffffffffffffffff1673ffffffffffffffffffffffffffffffffffffffff168152602001908152602001600020819055508273ffffffffffffffffffffffffffffffffffffffff163373ffffffffffffffffffffffffffffffffffffffff167f8c5be1e5ebec7d5bd14f71427d1e84f3dd0314c0f7b2291e5b200ac8c7c3b925846040516104429190610f5b565b60405180910390a36001905092915050565b6000600254905090565b60008073ffffffffffffffffffffffffffffffffffffffff168373ffffffffffffffffffffffffffffffffffffffff16036104ce576040517f08c379a00000000000000000000000000000000000000000000000000000000081526004016104c5906110e2565b60405180910390fd5b81600360008673ffffffffffffffffffffffffffffffffffffffff1673ffffffffffffffffffffffffffffffffffffffff168152602001908152602001600020541015610550576040517f08c379a00000000000000000000000000000000000000000000000000000000081526004016105479061114e565b60405180910390fd5b81600460008673ffffffffffffffffffffffffffffffffffffffff1673ffffffffffffffffffffffffffffffffffffffff16815260200190815260200160002060003373ffffffffffffffffffffffffffffffffffffffff1673ffffffffffffffffffffffffffffffffffffffff16815260200190815260200160002054101561060f576040517f08c379a0000000000000000000000000000000000000000000000000000000008152600401610606906111ba565b60405180910390fd5b81600360008673ffffffffffffffffffffffffffffffffffffffff1673ffffffffffffffffffffffffffffffffffffffff168152602001908152602001600020600082825461065e9190611209565b9250508190555081600360008573ffffffffffffffffffffffffffffffffffffffff1673ffffffffffffffffffffffffffffffffffffffff16815260200190815260200160002060008282546106b4919061123d565b9250508190555081600460008673ffffffffffffffffffffffffffffffffffffffff1673ffffffffffffffffffffffffffffffffffffffff16815260200190815260200160002060003373ffffffffffffffffffffffffffffffffffffffff1673ffffffffffffffffffffffffffffffffffffffff16815260200190815260200160002060008282546107479190611209565b925050819055508273ffffffffffffffffffffffffffffffffffffffff168473ffffffffffffffffffffffffffffffffffffffff167fddf252ad1be2c89b69c2b068fc378daa952ba7f163c4a11628f55a4df523b3ef846040516107ab9190610f5b565b60405180910390a3600190509392505050565b60025481565b80600260008282546107d6919061123d565b9250508190555080600360008473ffffffffffffffffffffffffffffffffffffffff1673ffffffffffffffffffffffffffffffffffffffff168152602001908152602001600020600082825461082c919061123d565b92505081905550808273ffffffffffffffffffffffffffffffffffffffff163073ffffffffffffffffffffffffffffffffffffffff167fab8530f87dc9b59234c4623bf917212bb2536d647574c8e7e5da92c2ede0c9f860405160405180910390a45050565b6000600360008373ffffffffffffffffffffffffffffffffffffffff1673ffffffffffffffffffffffffffffffffffffffff168152602001908152602001600020549050919050565b600180546108e890611065565b80601f016020809104026020016040519081016040528092919081815260200182805461091490611065565b80156109615780601f1061093657610100808354040283529160200191610961565b820191906000526020600020905b81548152906001019060200180831161094457829003601f168201915b505050505081565b80600360008473ffffffffffffffffffffffffffffffffffffffff1673ffffffffffffffffffffffffffffffffffffffff1681526020019081526020016000205410156109eb576040517f08c379a00000000000000000000000000000000000000000000000000000000081526004016109e2906112bd565b60405180910390fd5b80600260008282546109fd9190611209565b9250508190555080600360008473ffffffffffffffffffffffffffffffffffffffff1673ffffffffffffffffffffffffffffffffffffffff1681526020019081526020016000206000828254610a539190611209565b9250508190555080600073ffffffffffffffffffffffffffffffffffffffff168373ffffffffffffffffffffffffffffffffffffffff167fbac40739b0d4ca32fa2d82fc91630465ba3eddd1598da6fca393b26fb63b945360405160405180910390a45050565b60008073ffffffffffffffffffffffffffffffffffffffff168373ffffffffffffffffffffffffffffffffffffffff1603610b2a576040517f08c379a0000000000000000000000000000000000000000000000000000000008152600401610b21906110e2565b60405180910390fd5b81600360003373ffffffffffffffffffffffffffffffffffffffff1673ffffffffffffffffffffffffffffffffffffffff168152602001908152602001600020541015610bac576040517f08c379a0000000000000000000000000000000000000000000000000000000008152600401610ba39061114e565b60405180910390fd5b81600360003373ffffffffffffffffffffffffffffffffffffffff1673ffffffffffffffffffffffffffffffffffffffff1681526020019081526020016000206000828254610bfb9190611209565b9250508190555081600360008573ffffffffffffffffffffffffffffffffffffffff1673ffffffffffffffffffffffffffffffffffffffff1681526020019081526020016000206000828254610c51919061123d565b925050819055508273ffffffffffffffffffffffffffffffffffffffff163373ffffffffffffffffffffffffffffffffffffffff167fddf252ad1be2c89b69c2b068fc378daa952ba7f163c4a11628f55a4df523b3ef84604051610cb59190610f5b565b60405180910390a36001905092915050565b60036020528060005260406000206000915090505481565b6004602052816000526040600020602052806000526040600020600091509150505481565b6000600460008473ffffffffffffffffffffffffffffffffffffffff1673ffffffffffffffffffffffffffffffffffffffff16815260200190815260200160002060008373ffffffffffffffffffffffffffffffffffffffff1673ffffffffffffffffffffffffffffffffffffffff16815260200190815260200160002054905092915050565b600081519050919050565b600082825260208201905092915050565b60005b83811015610dc5578082015181840152602081019050610daa565b60008484015250505050565b6000601f19601f8301169050919050565b6000610ded82610d8b565b610df78185610d96565b9350610e07818560208601610da7565b610e1081610dd1565b840191505092915050565b60006020820190508181036000830152610e358184610de2565b905092915050565b600080fd5b600073ffffffffffffffffffffffffffffffffffffffff82169050919050565b6000610e6d82610e42565b9050919050565b610e7d81610e62565b8114610e8857600080fd5b50565b600081359050610e9a81610e74565b92915050565b6000819050919050565b610eb381610ea0565b8114610ebe57600080fd5b50565b600081359050610ed081610eaa565b92915050565b60008060408385031215610eed57610eec610e3d565b5b6000610efb85828601610e8b565b9250506020610f0c85828601610ec1565b9150509250929050565b60008115159050919050565b610f2b81610f16565b82525050565b6000602082019050610f466000830184610f22565b92915050565b610f5581610ea0565b82525050565b6000602082019050610f706000830184610f4c565b92915050565b600080600060608486031215610f8f57610f8e610e3d565b5b6000610f9d86828701610e8b565b9350506020610fae86828701610e8b565b9250506040610fbf86828701610ec1565b9150509250925092565b600060208284031215610fdf57610fde610e3d565b5b6000610fed84828501610e8b565b91505092915050565b6000806040838503121561100d5761100c610e3d565b5b600061101b85828601610e8b565b925050602061102c85828601610e8b565b9150509250929050565b7f4e487b7100000000000000000000000000000000000000000000000000000000600052602260045260246000fd5b6000600282049050600182168061107d57607f821691505b6020821081036110905761108f611036565b5b50919050565b7f496e76616c696420616464726573730000000000000000000000000000000000600082015250565b60006110cc600f83610d96565b91506110d782611096565b602082019050919050565b600060208201905081810360008301526110fb816110bf565b9050919050565b7f496e73756666696369656e742062616c616e6365000000000000000000000000600082015250565b6000611138601483610d96565b915061114382611102565b602082019050919050565b600060208201905081810360008301526111678161112b565b9050919050565b7f416c6c6f77616e63652065786365656465640000000000000000000000000000600082015250565b60006111a4601283610d96565b91506111af8261116e565b602082019050919050565b600060208201905081810360008301526111d381611197565b9050919050565b7f4e487b7100000000000000000000000000000000000000000000000000000000600052601160045260246000fd5b600061121482610ea0565b915061121f83610ea0565b9250828203905081811115611237576112366111da565b5b92915050565b600061124882610ea0565b915061125383610ea0565b925082820190508082111561126b5761126a6111da565b5b92915050565b7f696e73756666696369656e742062546f6b656e00000000000000000000000000600082015250565b60006112a7601383610d96565b91506112b282611271565b602082019050919050565b600060208201905081810360008301526112d68161129a565b905091905056fea2646970667358221220b151f680189c21b4eed56db64c8c9b25a1e2667a10d843c3e091e126be1cfc3a64736f6c63430008140033",
  "linkReferences": {},
  "deployedLinkReferences": {}
}