{
  "_format": "hh-sol-artifact-1",
  "contractName": "Reentryattack_bank",
  "sourceName": "contracts/reentryattack_bank.sol",
  "abi": [
    {
      "anonymous": false,
      "inputs": [
        {
          "indexed": true,
          "internalType": "address",
          "name": "user",
          "type": "address"
        },
        {
          "indexed": false,
          "internalType": "uint256",
          "name": "amount",
          "type": "uint256"
        }
      ],
      "name": "Deposit",
      "type": "event"
    },
    {
      "anonymous": false,
      "inputs": [
        {
          "indexed": true,
          "internalType": "address",
          "name": "user",
          "type": "address"
        },
        {
          "indexed": false,
          "internalType": "uint256",
          "name": "amount",
          "type": "uint256"
        }
      ],
      "name": "Withdraw",
      "type": "event"
    },
    {
      "inputs": [],
      "name": "deposit",
      "outputs": [],
      "stateMutability": "payable",
      "type": "function"
    },
    {
      "inputs": [
        {
          "internalType": "address",
          "name": "",
          "type": "address"
        }
      ],
      "name": "deposits",
      "outputs": [
        {
          "internalType": "uint256",
          "name": "",
          "type": "uint256"
        }
      ],
      "stateMutability": "view",
      "type": "function"
    },
    {
      "inputs": [
        {
          "internalType": "uint256",
          "name": "amount",
          "type": "uint256"
        }
      ],
      "name": "withdraw",
      "outputs": [],
      "stateMutability": "nonpayable",
      "type": "function"
    }
  ],
  "bytecode": "0x608060405234801561001057600080fd5b50610653806100206000396000f3fe6080604052600436106100345760003560e01c80632e1a7d4d14610039578063d0e30db014610062578063fc7e286d1461006c575b600080fd5b34801561004557600080fd5b50610060600480360381019061005b9190610375565b6100a9565b005b61006a61027d565b005b34801561007857600080fd5b50610093600480360381019061008e9190610400565b610322565b6040516100a0919061043c565b60405180910390f35b806000803373ffffffffffffffffffffffffffffffffffffffff1673ffffffffffffffffffffffffffffffffffffffff16815260200190815260200160002054101561012a576040517f08c379a0000000000000000000000000000000000000000000000000000000008152600401610121906104b4565b60405180910390fd5b60003373ffffffffffffffffffffffffffffffffffffffff168260405161015090610505565b60006040518083038185875af1925050503d806000811461018d576040519150601f19603f3d011682016040523d82523d6000602084013e610192565b606091505b50509050806101d6576040517f08c379a00000000000000000000000000000000000000000000000000000000081526004016101cd90610566565b60405180910390fd5b816000803373ffffffffffffffffffffffffffffffffffffffff1673ffffffffffffffffffffffffffffffffffffffff168152602001908152602001600020600082825461022491906105b5565b925050819055503373ffffffffffffffffffffffffffffffffffffffff167f884edad9ce6fa2440d8a54cc123490eb96d2768479d49ff9c7366125a942436483604051610271919061043c565b60405180910390a25050565b346000803373ffffffffffffffffffffffffffffffffffffffff1673ffffffffffffffffffffffffffffffffffffffff16815260200190815260200160002060008282546102cb91906105e9565b925050819055503373ffffffffffffffffffffffffffffffffffffffff167fe1fffcc4923d04b559f4d29a8bfc6cda04eb5b0d3c460751c2402c5c5cc9109c34604051610318919061043c565b60405180910390a2565b60006020528060005260406000206000915090505481565b600080fd5b6000819050919050565b6103528161033f565b811461035d57600080fd5b50565b60008135905061036f81610349565b92915050565b60006020828403121561038b5761038a61033a565b5b600061039984828501610360565b91505092915050565b600073ffffffffffffffffffffffffffffffffffffffff82169050919050565b60006103cd826103a2565b9050919050565b6103dd816103c2565b81146103e857600080fd5b50565b6000813590506103fa816103d4565b92915050565b6000602082840312156104165761041561033a565b5b6000610424848285016103eb565b91505092915050565b6104368161033f565b82525050565b6000602082019050610451600083018461042d565b92915050565b600082825260208201905092915050565b7f696e73756666696369656e74206465706f736974000000000000000000000000600082015250565b600061049e601483610457565b91506104a982610468565b602082019050919050565b600060208201905081810360008301526104cd81610491565b9050919050565b600081905092915050565b50565b60006104ef6000836104d4565b91506104fa826104df565b600082019050919050565b6000610510826104e2565b9150819050919050565b7f4661696c65640000000000000000000000000000000000000000000000000000600082015250565b6000610550600683610457565b915061055b8261051a565b602082019050919050565b6000602082019050818103600083015261057f81610543565b9050919050565b7f4e487b7100000000000000000000000000000000000000000000000000000000600052601160045260246000fd5b60006105c08261033f565b91506105cb8361033f565b92508282039050818111156105e3576105e2610586565b5b92915050565b60006105f48261033f565b91506105ff8361033f565b925082820190508082111561061757610616610586565b5b9291505056fea26469706673582212206e082c060fcc0813db1b01ce04b5a933677cd5852e06ff66f27b9104dd3208ec64736f6c63430008140033",
  "linkReferences": {},
  "deployedLinkReferences": {}
}