{
  "_format": "hh-sol-artifact-1",
  "contractName": "Decode",
  "sourceName": "contracts/abidecode.sol",
  "abi": [
    {
      "inputs": [
        {
          "internalType": "bytes",
          "name": "data",
          "type": "bytes"
        }
      ],
      "name": "decodeExample",
      "outputs": [
        {
          "internalType": "address",
          "name": "to",
          "type": "address"
        },
        {
          "internalType": "uint16",
          "name": "amount",
          "type": "uint16"
        },
        {
          "internalType": "uint8",
          "name": "b",
          "type": "uint8"
        },
        {
          "internalType": "uint256",
          "name": "d",
          "type": "uint256"
        }
      ],
      "stateMutability": "pure",
      "type": "function"
    }
  ],
  "bytecode": "0x608060405234801561001057600080fd5b506103e5806100206000396000f3fe608060405234801561001057600080fd5b506004361061002b5760003560e01c80632b4324da14610030575b600080fd5b61004a6004803603810190610045919061011c565b610063565b60405161005a94939291906101fc565b60405180910390f35b6000806000803660008787600490809261007f9392919061024b565b9150915081818101906100929190610348565b80965081975082985083995050505050505092959194509250565b600080fd5b600080fd5b600080fd5b600080fd5b600080fd5b60008083601f8401126100dc576100db6100b7565b5b8235905067ffffffffffffffff8111156100f9576100f86100bc565b5b602083019150836001820283011115610115576101146100c1565b5b9250929050565b60008060208385031215610133576101326100ad565b5b600083013567ffffffffffffffff811115610151576101506100b2565b5b61015d858286016100c6565b92509250509250929050565b600073ffffffffffffffffffffffffffffffffffffffff82169050919050565b600061019482610169565b9050919050565b6101a481610189565b82525050565b600061ffff82169050919050565b6101c1816101aa565b82525050565b600060ff82169050919050565b6101dd816101c7565b82525050565b6000819050919050565b6101f6816101e3565b82525050565b6000608082019050610211600083018761019b565b61021e60208301866101b8565b61022b60408301856101d4565b61023860608301846101ed565b95945050505050565b600080fd5b600080fd5b6000808585111561025f5761025e610241565b5b838611156102705761026f610246565b5b6001850283019150848603905094509492505050565b600061029182610169565b9050919050565b6102a181610286565b81146102ac57600080fd5b50565b6000813590506102be81610298565b92915050565b6102cd816101aa565b81146102d857600080fd5b50565b6000813590506102ea816102c4565b92915050565b6102f9816101c7565b811461030457600080fd5b50565b600081359050610316816102f0565b92915050565b610325816101e3565b811461033057600080fd5b50565b6000813590506103428161031c565b92915050565b60008060008060808587031215610362576103616100ad565b5b6000610370878288016102af565b9450506020610381878288016102db565b935050604061039287828801610307565b92505060606103a387828801610333565b9150509295919450925056fea2646970667358221220c707076cb92a8691598563c3bc2e91d71bfc26a58a297dbee535eb4af926638464736f6c63430008140033",
  "linkReferences": {},
  "deployedLinkReferences": {}
}