{
  "_format": "hh-sol-artifact-1",
  "contractName": "SimpleBank_with_ERC20",
  "sourceName": "contracts/simplebank_with_ERC20.sol",
  "abi": [
    {
      "inputs": [
        {
          "internalType": "address",
          "name": "token_addr",
          "type": "address"
        }
      ],
      "stateMutability": "nonpayable",
      "type": "constructor"
    },
    {
      "anonymous": false,
      "inputs": [
        {
          "indexed": true,
          "internalType": "address",
          "name": "owner",
          "type": "address"
        },
        {
          "indexed": true,
          "internalType": "address",
          "name": "spender",
          "type": "address"
        },
        {
          "indexed": false,
          "internalType": "uint256",
          "name": "value",
          "type": "uint256"
        }
      ],
      "name": "Approval",
      "type": "event"
    },
    {
      "anonymous": false,
      "inputs": [
        {
          "indexed": true,
          "internalType": "address",
          "name": "from",
          "type": "address"
        },
        {
          "indexed": true,
          "internalType": "address",
          "name": "to",
          "type": "address"
        },
        {
          "indexed": true,
          "internalType": "uint256",
          "name": "",
          "type": "uint256"
        }
      ],
      "name": "Burn",
      "type": "event"
    },
    {
      "anonymous": false,
      "inputs": [
        {
          "indexed": true,
          "internalType": "address",
          "name": "from",
          "type": "address"
        },
        {
          "indexed": true,
          "internalType": "address",
          "name": "to",
          "type": "address"
        },
        {
          "indexed": true,
          "internalType": "uint256",
          "name": "",
          "type": "uint256"
        }
      ],
      "name": "Mint",
      "type": "event"
    },
    {
      "anonymous": false,
      "inputs": [
        {
          "indexed": true,
          "internalType": "address",
          "name": "from",
          "type": "address"
        },
        {
          "indexed": true,
          "internalType": "address",
          "name": "to",
          "type": "address"
        },
        {
          "indexed": false,
          "internalType": "uint256",
          "name": "value",
          "type": "uint256"
        }
      ],
      "name": "Transfer",
      "type": "event"
    },
    {
      "inputs": [
        {
          "internalType": "address",
          "name": "",
          "type": "address"
        },
        {
          "internalType": "address",
          "name": "",
          "type": "address"
        }
      ],
      "name": "_allowance",
      "outputs": [
        {
          "internalType": "uint256",
          "name": "",
          "type": "uint256"
        }
      ],
      "stateMutability": "view",
      "type": "function"
    },
    {
      "inputs": [
        {
          "internalType": "address",
          "name": "",
          "type": "address"
        }
      ],
      "name": "_balanceOf",
      "outputs": [
        {
          "internalType": "uint256",
          "name": "",
          "type": "uint256"
        }
      ],
      "stateMutability": "view",
      "type": "function"
    },
    {
      "inputs": [
        {
          "internalType": "address",
          "name": "owner",
          "type": "address"
        },
        {
          "internalType": "address",
          "name": "spender",
          "type": "address"
        }
      ],
      "name": "allowance",
      "outputs": [
        {
          "internalType": "uint256",
          "name": "",
          "type": "uint256"
        }
      ],
      "stateMutability": "view",
      "type": "function"
    },
    {
      "inputs": [
        {
          "internalType": "address",
          "name": "spender",
          "type": "address"
        },
        {
          "internalType": "uint256",
          "name": "value",
          "type": "uint256"
        }
      ],
      "name": "approve",
      "outputs": [
        {
          "internalType": "bool",
          "name": "",
          "type": "bool"
        }
      ],
      "stateMutability": "nonpayable",
      "type": "function"
    },
    {
      "inputs": [
        {
          "internalType": "address",
          "name": "account",
          "type": "address"
        }
      ],
      "name": "balanceOf",
      "outputs": [
        {
          "internalType": "uint256",
          "name": "",
          "type": "uint256"
        }
      ],
      "stateMutability": "view",
      "type": "function"
    },
    {
      "inputs": [
        {
          "internalType": "uint256",
          "name": "amount",
          "type": "uint256"
        }
      ],
      "name": "deposit",
      "outputs": [],
      "stateMutability": "nonpayable",
      "type": "function"
    },
    {
      "inputs": [
        {
          "internalType": "address",
          "name": "",
          "type": "address"
        }
      ],
      "name": "deposits",
      "outputs": [
        {
          "internalType": "uint256",
          "name": "",
          "type": "uint256"
        }
      ],
      "stateMutability": "view",
      "type": "function"
    },
    {
      "inputs": [],
      "name": "name",
      "outputs": [
        {
          "internalType": "string",
          "name": "",
          "type": "string"
        }
      ],
      "stateMutability": "view",
      "type": "function"
    },
    {
      "inputs": [],
      "name": "owner_",
      "outputs": [
        {
          "internalType": "address",
          "name": "",
          "type": "address"
        }
      ],
      "stateMutability": "view",
      "type": "function"
    },
    {
      "inputs": [],
      "name": "symbol",
      "outputs": [
        {
          "internalType": "string",
          "name": "",
          "type": "string"
        }
      ],
      "stateMutability": "view",
      "type": "function"
    },
    {
      "inputs": [],
      "name": "token_",
      "outputs": [
        {
          "internalType": "address",
          "name": "",
          "type": "address"
        }
      ],
      "stateMutability": "view",
      "type": "function"
    },
    {
      "inputs": [],
      "name": "totalSupply",
      "outputs": [
        {
          "internalType": "uint256",
          "name": "",
          "type": "uint256"
        }
      ],
      "stateMutability": "view",
      "type": "function"
    },
    {
      "inputs": [],
      "name": "totalSupply_",
      "outputs": [
        {
          "internalType": "uint256",
          "name": "",
          "type": "uint256"
        }
      ],
      "stateMutability": "view",
      "type": "function"
    },
    {
      "inputs": [
        {
          "internalType": "address",
          "name": "to",
          "type": "address"
        },
        {
          "internalType": "uint256",
          "name": "value",
          "type": "uint256"
        }
      ],
      "name": "transfer",
      "outputs": [
        {
          "internalType": "bool",
          "name": "",
          "type": "bool"
        }
      ],
      "stateMutability": "nonpayable",
      "type": "function"
    },
    {
      "inputs": [
        {
          "internalType": "address",
          "name": "from",
          "type": "address"
        },
        {
          "internalType": "address",
          "name": "to",
          "type": "address"
        },
        {
          "internalType": "uint256",
          "name": "value",
          "type": "uint256"
        }
      ],
      "name": "transferFrom",
      "outputs": [
        {
          "internalType": "bool",
          "name": "",
          "type": "bool"
        }
      ],
      "stateMutability": "nonpayable",
      "type": "function"
    },
    {
      "inputs": [
        {
          "internalType": "uint256",
          "name": "amount",
          "type": "uint256"
        }
      ],
      "name": "withdraw",
      "outputs": [],
      "stateMutability": "nonpayable",
      "type": "function"
    }
  ],
  "bytecode": "0x60806040526040518060400160405280600c81526020017f425f7465737420546f6b656e0000000000000000000000000000000000000000815250600290816200004a9190620003c7565b506040518060400160405280600481526020017f42544f4b0000000000000000000000000000000000000000000000000000000081525060039081620000919190620003c7565b503480156200009f57600080fd5b5060405162001d7038038062001d708339818101604052810190620000c5919062000518565b806000806101000a81548173ffffffffffffffffffffffffffffffffffffffff021916908373ffffffffffffffffffffffffffffffffffffffff16021790555033600160006101000a81548173ffffffffffffffffffffffffffffffffffffffff021916908373ffffffffffffffffffffffffffffffffffffffff160217905550506200054a565b600081519050919050565b7f4e487b7100000000000000000000000000000000000000000000000000000000600052604160045260246000fd5b7f4e487b7100000000000000000000000000000000000000000000000000000000600052602260045260246000fd5b60006002820490506001821680620001cf57607f821691505b602082108103620001e557620001e462000187565b5b50919050565b60008190508160005260206000209050919050565b60006020601f8301049050919050565b600082821b905092915050565b6000600883026200024f7fffffffffffffffffffffffffffffffffffffffffffffffffffffffffffffffff8262000210565b6200025b868362000210565b95508019841693508086168417925050509392505050565b6000819050919050565b6000819050919050565b6000620002a8620002a26200029c8462000273565b6200027d565b62000273565b9050919050565b6000819050919050565b620002c48362000287565b620002dc620002d382620002af565b8484546200021d565b825550505050565b600090565b620002f3620002e4565b62000300818484620002b9565b505050565b5b8181101562000328576200031c600082620002e9565b60018101905062000306565b5050565b601f82111562000377576200034181620001eb565b6200034c8462000200565b810160208510156200035c578190505b620003746200036b8562000200565b83018262000305565b50505b505050565b600082821c905092915050565b60006200039c600019846008026200037c565b1980831691505092915050565b6000620003b7838362000389565b9150826002028217905092915050565b620003d2826200014d565b67ffffffffffffffff811115620003ee57620003ed62000158565b5b620003fa8254620001b6565b620004078282856200032c565b600060209050601f8311600181146200043f57600084156200042a578287015190505b620004368582620003a9565b865550620004a6565b601f1984166200044f86620001eb565b60005b82811015620004795784890151825560018201915060208501945060208101905062000452565b8683101562000499578489015162000495601f89168262000389565b8355505b6001600288020188555050505b505050505050565b600080fd5b600073ffffffffffffffffffffffffffffffffffffffff82169050919050565b6000620004e082620004b3565b9050919050565b620004f281620004d3565b8114620004fe57600080fd5b50565b6000815190506200051281620004e7565b92915050565b600060208284031215620005315762000530620004ae565b5b6000620005418482850162000501565b91505092915050565b611816806200055a6000396000f3fe608060405234801561001057600080fd5b50600436106101005760003560e01c8063a9059cbb11610097578063dd336c1211610066578063dd336c12146102c3578063dd62ed3e146102f3578063e766307914610323578063fc7e286d1461034157610100565b8063a9059cbb14610229578063b6b55f2514610259578063cca3e83214610275578063d56805e1146102a557610100565b80632e1a7d4d116100d35780632e1a7d4d146101a1578063324536eb146101bd57806370a08231146101db57806395d89b411461020b57610100565b806306fdde0314610105578063095ea7b31461012357806318160ddd1461015357806323b872dd14610171575b600080fd5b61010d610371565b60405161011a91906111a2565b60405180910390f35b61013d6004803603810190610138919061125d565b6103ff565b60405161014a91906112b8565b60405180910390f35b61015b6104f1565b60405161016891906112e2565b60405180910390f35b61018b600480360381019061018691906112fd565b6104fb565b60405161019891906112b8565b60405180910390f35b6101bb60048036038101906101b69190611350565b61085b565b005b6101c56109df565b6040516101d291906112e2565b60405180910390f35b6101f560048036038101906101f0919061137d565b6109e5565b60405161020291906112e2565b60405180910390f35b610213610a2e565b60405161022091906111a2565b60405180910390f35b610243600480360381019061023e919061125d565b610abc565b60405161025091906112b8565b60405180910390f35b610273600480360381019061026e9190611350565b610cc9565b005b61028f600480360381019061028a919061137d565b610dcd565b60405161029c91906112e2565b60405180910390f35b6102ad610de5565b6040516102ba91906113b9565b60405180910390f35b6102dd60048036038101906102d891906113d4565b610e09565b6040516102ea91906112e2565b60405180910390f35b61030d600480360381019061030891906113d4565b610e2e565b60405161031a91906112e2565b60405180910390f35b61032b610eb5565b60405161033891906113b9565b60405180910390f35b61035b6004803603810190610356919061137d565b610edb565b60405161036891906112e2565b60405180910390f35b6002805461037e90611443565b80601f01602080910402602001604051908101604052809291908181526020018280546103aa90611443565b80156103f75780601f106103cc576101008083540402835291602001916103f7565b820191906000526020600020905b8154815290600101906020018083116103da57829003601f168201915b505050505081565b600081600660003373ffffffffffffffffffffffffffffffffffffffff1673ffffffffffffffffffffffffffffffffffffffff16815260200190815260200160002060008573ffffffffffffffffffffffffffffffffffffffff1673ffffffffffffffffffffffffffffffffffffffff168152602001908152602001600020819055508273ffffffffffffffffffffffffffffffffffffffff163373ffffffffffffffffffffffffffffffffffffffff167f8c5be1e5ebec7d5bd14f71427d1e84f3dd0314c0f7b2291e5b200ac8c7c3b925846040516104df91906112e2565b60405180910390a36001905092915050565b6000600454905090565b60008073ffffffffffffffffffffffffffffffffffffffff168373ffffffffffffffffffffffffffffffffffffffff160361056b576040517f08c379a0000000000000000000000000000000000000000000000000000000008152600401610562906114c0565b60405180910390fd5b81600560008673ffffffffffffffffffffffffffffffffffffffff1673ffffffffffffffffffffffffffffffffffffffff1681526020019081526020016000205410156105ed576040517f08c379a00000000000000000000000000000000000000000000000000000000081526004016105e49061152c565b60405180910390fd5b81600660008673ffffffffffffffffffffffffffffffffffffffff1673ffffffffffffffffffffffffffffffffffffffff16815260200190815260200160002060003373ffffffffffffffffffffffffffffffffffffffff1673ffffffffffffffffffffffffffffffffffffffff1681526020019081526020016000205410156106ac576040517f08c379a00000000000000000000000000000000000000000000000000000000081526004016106a390611598565b60405180910390fd5b81600560008673ffffffffffffffffffffffffffffffffffffffff1673ffffffffffffffffffffffffffffffffffffffff16815260200190815260200160002060008282546106fb91906115e7565b9250508190555081600560008573ffffffffffffffffffffffffffffffffffffffff1673ffffffffffffffffffffffffffffffffffffffff1681526020019081526020016000206000828254610751919061161b565b9250508190555081600660008673ffffffffffffffffffffffffffffffffffffffff1673ffffffffffffffffffffffffffffffffffffffff16815260200190815260200160002060003373ffffffffffffffffffffffffffffffffffffffff1673ffffffffffffffffffffffffffffffffffffffff16815260200190815260200160002060008282546107e491906115e7565b925050819055508273ffffffffffffffffffffffffffffffffffffffff168473ffffffffffffffffffffffffffffffffffffffff167fddf252ad1be2c89b69c2b068fc378daa952ba7f163c4a11628f55a4df523b3ef8460405161084891906112e2565b60405180910390a3600190509392505050565b80600760003373ffffffffffffffffffffffffffffffffffffffff1673ffffffffffffffffffffffffffffffffffffffff1681526020019081526020016000205410156108dd576040517f08c379a00000000000000000000000000000000000000000000000000000000081526004016108d49061169b565b60405180910390fd5b80600760003373ffffffffffffffffffffffffffffffffffffffff1673ffffffffffffffffffffffffffffffffffffffff168152602001908152602001600020600082825461092c91906115e7565b9250508190555061093d3382610ef3565b60008054906101000a900473ffffffffffffffffffffffffffffffffffffffff1673ffffffffffffffffffffffffffffffffffffffff1663a9059cbb33836040518363ffffffff1660e01b81526004016109989291906116bb565b6020604051808303816000875af11580156109b7573d6000803e3d6000fd5b505050506040513d601f19601f820116820180604052508101906109db9190611710565b5050565b60045481565b6000600560008373ffffffffffffffffffffffffffffffffffffffff1673ffffffffffffffffffffffffffffffffffffffff168152602001908152602001600020549050919050565b60038054610a3b90611443565b80601f0160208091040260200160405190810160405280929190818152602001828054610a6790611443565b8015610ab45780601f10610a8957610100808354040283529160200191610ab4565b820191906000526020600020905b815481529060010190602001808311610a9757829003601f168201915b505050505081565b60008073ffffffffffffffffffffffffffffffffffffffff168373ffffffffffffffffffffffffffffffffffffffff1603610b2c576040517f08c379a0000000000000000000000000000000000000000000000000000000008152600401610b23906114c0565b60405180910390fd5b81600560003373ffffffffffffffffffffffffffffffffffffffff1673ffffffffffffffffffffffffffffffffffffffff168152602001908152602001600020541015610bae576040517f08c379a0000000000000000000000000000000000000000000000000000000008152600401610ba59061152c565b60405180910390fd5b81600560003373ffffffffffffffffffffffffffffffffffffffff1673ffffffffffffffffffffffffffffffffffffffff1681526020019081526020016000206000828254610bfd91906115e7565b9250508190555081600560008573ffffffffffffffffffffffffffffffffffffffff1673ffffffffffffffffffffffffffffffffffffffff1681526020019081526020016000206000828254610c53919061161b565b925050819055508273ffffffffffffffffffffffffffffffffffffffff163373ffffffffffffffffffffffffffffffffffffffff167fddf252ad1be2c89b69c2b068fc378daa952ba7f163c4a11628f55a4df523b3ef84604051610cb791906112e2565b60405180910390a36001905092915050565b60008054906101000a900473ffffffffffffffffffffffffffffffffffffffff1673ffffffffffffffffffffffffffffffffffffffff166323b872dd3330846040518463ffffffff1660e01b8152600401610d269392919061173d565b6020604051808303816000875af1158015610d45573d6000803e3d6000fd5b505050506040513d601f19601f82011682018060405250810190610d699190611710565b50610d743382611044565b80600760003373ffffffffffffffffffffffffffffffffffffffff1673ffffffffffffffffffffffffffffffffffffffff1681526020019081526020016000206000828254610dc3919061161b565b9250508190555050565b60056020528060005260406000206000915090505481565b60008054906101000a900473ffffffffffffffffffffffffffffffffffffffff1681565b6006602052816000526040600020602052806000526040600020600091509150505481565b6000600660008473ffffffffffffffffffffffffffffffffffffffff1673ffffffffffffffffffffffffffffffffffffffff16815260200190815260200160002060008373ffffffffffffffffffffffffffffffffffffffff1673ffffffffffffffffffffffffffffffffffffffff16815260200190815260200160002054905092915050565b600160009054906101000a900473ffffffffffffffffffffffffffffffffffffffff1681565b60076020528060005260406000206000915090505481565b80600560008473ffffffffffffffffffffffffffffffffffffffff1673ffffffffffffffffffffffffffffffffffffffff168152602001908152602001600020541015610f75576040517f08c379a0000000000000000000000000000000000000000000000000000000008152600401610f6c906117c0565b60405180910390fd5b8060046000828254610f8791906115e7565b9250508190555080600560008473ffffffffffffffffffffffffffffffffffffffff1673ffffffffffffffffffffffffffffffffffffffff1681526020019081526020016000206000828254610fdd91906115e7565b9250508190555080600073ffffffffffffffffffffffffffffffffffffffff168373ffffffffffffffffffffffffffffffffffffffff167fbac40739b0d4ca32fa2d82fc91630465ba3eddd1598da6fca393b26fb63b945360405160405180910390a45050565b8060046000828254611056919061161b565b9250508190555080600560008473ffffffffffffffffffffffffffffffffffffffff1673ffffffffffffffffffffffffffffffffffffffff16815260200190815260200160002060008282546110ac919061161b565b92505081905550808273ffffffffffffffffffffffffffffffffffffffff163073ffffffffffffffffffffffffffffffffffffffff167fab8530f87dc9b59234c4623bf917212bb2536d647574c8e7e5da92c2ede0c9f860405160405180910390a45050565b600081519050919050565b600082825260208201905092915050565b60005b8381101561114c578082015181840152602081019050611131565b60008484015250505050565b6000601f19601f8301169050919050565b600061117482611112565b61117e818561111d565b935061118e81856020860161112e565b61119781611158565b840191505092915050565b600060208201905081810360008301526111bc8184611169565b905092915050565b600080fd5b600073ffffffffffffffffffffffffffffffffffffffff82169050919050565b60006111f4826111c9565b9050919050565b611204816111e9565b811461120f57600080fd5b50565b600081359050611221816111fb565b92915050565b6000819050919050565b61123a81611227565b811461124557600080fd5b50565b60008135905061125781611231565b92915050565b60008060408385031215611274576112736111c4565b5b600061128285828601611212565b925050602061129385828601611248565b9150509250929050565b60008115159050919050565b6112b28161129d565b82525050565b60006020820190506112cd60008301846112a9565b92915050565b6112dc81611227565b82525050565b60006020820190506112f760008301846112d3565b92915050565b600080600060608486031215611316576113156111c4565b5b600061132486828701611212565b935050602061133586828701611212565b925050604061134686828701611248565b9150509250925092565b600060208284031215611366576113656111c4565b5b600061137484828501611248565b91505092915050565b600060208284031215611393576113926111c4565b5b60006113a184828501611212565b91505092915050565b6113b3816111e9565b82525050565b60006020820190506113ce60008301846113aa565b92915050565b600080604083850312156113eb576113ea6111c4565b5b60006113f985828601611212565b925050602061140a85828601611212565b9150509250929050565b7f4e487b7100000000000000000000000000000000000000000000000000000000600052602260045260246000fd5b6000600282049050600182168061145b57607f821691505b60208210810361146e5761146d611414565b5b50919050565b7f496e76616c696420616464726573730000000000000000000000000000000000600082015250565b60006114aa600f8361111d565b91506114b582611474565b602082019050919050565b600060208201905081810360008301526114d98161149d565b9050919050565b7f496e73756666696369656e742062616c616e6365000000000000000000000000600082015250565b600061151660148361111d565b9150611521826114e0565b602082019050919050565b6000602082019050818103600083015261154581611509565b9050919050565b7f416c6c6f77616e63652065786365656465640000000000000000000000000000600082015250565b600061158260128361111d565b915061158d8261154c565b602082019050919050565b600060208201905081810360008301526115b181611575565b9050919050565b7f4e487b7100000000000000000000000000000000000000000000000000000000600052601160045260246000fd5b60006115f282611227565b91506115fd83611227565b9250828203905081811115611615576116146115b8565b5b92915050565b600061162682611227565b915061163183611227565b9250828201905080821115611649576116486115b8565b5b92915050565b7f696e73756666696369656e74206465706f736974000000000000000000000000600082015250565b600061168560148361111d565b91506116908261164f565b602082019050919050565b600060208201905081810360008301526116b481611678565b9050919050565b60006040820190506116d060008301856113aa565b6116dd60208301846112d3565b9392505050565b6116ed8161129d565b81146116f857600080fd5b50565b60008151905061170a816116e4565b92915050565b600060208284031215611726576117256111c4565b5b6000611734848285016116fb565b91505092915050565b600060608201905061175260008301866113aa565b61175f60208301856113aa565b61176c60408301846112d3565b949350505050565b7f696e73756666696369656e742062546f6b656e00000000000000000000000000600082015250565b60006117aa60138361111d565b91506117b582611774565b602082019050919050565b600060208201905081810360008301526117d98161179d565b905091905056fea26469706673582212209e499163171f1a36f6e848df4e8946ec9b06c0eb42a582af973d8b95dc60fac564736f6c63430008140033",
  "linkReferences": {},
  "deployedLinkReferences": {}
}