{
  "_format": "hh-sol-artifact-1",
  "contractName": "Reentryattack_bank",
  "sourceName": "contracts/12/reentryattack_bank.sol",
  "abi": [
    {
      "anonymous": false,
      "inputs": [
        {
          "indexed": true,
          "internalType": "address",
          "name": "user",
          "type": "address"
        },
        {
          "indexed": false,
          "internalType": "uint256",
          "name": "amount",
          "type": "uint256"
        }
      ],
      "name": "Deposit",
      "type": "event"
    },
    {
      "anonymous": false,
      "inputs": [
        {
          "indexed": true,
          "internalType": "address",
          "name": "user",
          "type": "address"
        },
        {
          "indexed": false,
          "internalType": "uint256",
          "name": "amount",
          "type": "uint256"
        }
      ],
      "name": "Withdraw",
      "type": "event"
    },
    {
      "inputs": [],
      "name": "deposit",
      "outputs": [],
      "stateMutability": "payable",
      "type": "function"
    },
    {
      "inputs": [
        {
          "internalType": "address",
          "name": "",
          "type": "address"
        }
      ],
      "name": "deposits",
      "outputs": [
        {
          "internalType": "uint256",
          "name": "",
          "type": "uint256"
        }
      ],
      "stateMutability": "view",
      "type": "function"
    },
    {
      "inputs": [
        {
          "internalType": "uint256",
          "name": "amount",
          "type": "uint256"
        }
      ],
      "name": "withdraw",
      "outputs": [],
      "stateMutability": "nonpayable",
      "type": "function"
    },
    {
      "inputs": [],
      "name": "withdrawall",
      "outputs": [],
      "stateMutability": "nonpayable",
      "type": "function"
    }
  ],
  "bytecode": "0x608060405234801561001057600080fd5b50610769806100206000396000f3fe60806040526004361061003f5760003560e01c80632e1a7d4d14610044578063d0e30db01461006d578063f66c728114610077578063fc7e286d1461008e575b600080fd5b34801561005057600080fd5b5061006b600480360381019061006691906104bf565b6100cb565b005b610075610296565b005b34801561008357600080fd5b5061008c61033b565b005b34801561009a57600080fd5b506100b560048036038101906100b0919061054a565b61046c565b6040516100c29190610586565b60405180910390f35b806000803373ffffffffffffffffffffffffffffffffffffffff1673ffffffffffffffffffffffffffffffffffffffff16815260200190815260200160002054101561014c576040517f08c379a0000000000000000000000000000000000000000000000000000000008152600401610143906105fe565b60405180910390fd5b60003373ffffffffffffffffffffffffffffffffffffffff16826040516101729061064f565b60006040518083038185875af1925050503d80600081146101af576040519150601f19603f3d011682016040523d82523d6000602084013e6101b4565b606091505b50509050806101f8576040517f08c379a00000000000000000000000000000000000000000000000000000000081526004016101ef906106b0565b60405180910390fd5b816000803373ffffffffffffffffffffffffffffffffffffffff1673ffffffffffffffffffffffffffffffffffffffff168152602001908152602001600020600082825403925050819055503373ffffffffffffffffffffffffffffffffffffffff167f884edad9ce6fa2440d8a54cc123490eb96d2768479d49ff9c7366125a94243648360405161028a9190610586565b60405180910390a25050565b346000803373ffffffffffffffffffffffffffffffffffffffff1673ffffffffffffffffffffffffffffffffffffffff16815260200190815260200160002060008282546102e491906106ff565b925050819055503373ffffffffffffffffffffffffffffffffffffffff167fe1fffcc4923d04b559f4d29a8bfc6cda04eb5b0d3c460751c2402c5c5cc9109c346040516103319190610586565b60405180910390a2565b60003373ffffffffffffffffffffffffffffffffffffffff166000803373ffffffffffffffffffffffffffffffffffffffff1673ffffffffffffffffffffffffffffffffffffffff1681526020019081526020016000205460405161039f9061064f565b60006040518083038185875af1925050503d80600081146103dc576040519150601f19603f3d011682016040523d82523d6000602084013e6103e1565b606091505b5050905080610425576040517f08c379a000000000000000000000000000000000000000000000000000000000815260040161041c906106b0565b60405180910390fd5b60008060003373ffffffffffffffffffffffffffffffffffffffff1673ffffffffffffffffffffffffffffffffffffffff1681526020019081526020016000208190555050565b60006020528060005260406000206000915090505481565b600080fd5b6000819050919050565b61049c81610489565b81146104a757600080fd5b50565b6000813590506104b981610493565b92915050565b6000602082840312156104d5576104d4610484565b5b60006104e3848285016104aa565b91505092915050565b600073ffffffffffffffffffffffffffffffffffffffff82169050919050565b6000610517826104ec565b9050919050565b6105278161050c565b811461053257600080fd5b50565b6000813590506105448161051e565b92915050565b6000602082840312156105605761055f610484565b5b600061056e84828501610535565b91505092915050565b61058081610489565b82525050565b600060208201905061059b6000830184610577565b92915050565b600082825260208201905092915050565b7f696e73756666696369656e74206465706f736974000000000000000000000000600082015250565b60006105e86014836105a1565b91506105f3826105b2565b602082019050919050565b60006020820190508181036000830152610617816105db565b9050919050565b600081905092915050565b50565b600061063960008361061e565b915061064482610629565b600082019050919050565b600061065a8261062c565b9150819050919050565b7f4661696c65640000000000000000000000000000000000000000000000000000600082015250565b600061069a6006836105a1565b91506106a582610664565b602082019050919050565b600060208201905081810360008301526106c98161068d565b9050919050565b7f4e487b7100000000000000000000000000000000000000000000000000000000600052601160045260246000fd5b600061070a82610489565b915061071583610489565b925082820190508082111561072d5761072c6106d0565b5b9291505056fea2646970667358221220ed174ae0579c0c9da16747dabbbae1225b2f2a7e884feb61eeebc9c4b57e42ef64736f6c63430008140033",
  "linkReferences": {},
  "deployedLinkReferences": {}
}