{
  "_format": "hh-sol-artifact-1",
  "contractName": "MyERC721",
  "sourceName": "contracts/MyERC721.sol",
  "abi": [
    {
      "inputs": [],
      "stateMutability": "nonpayable",
      "type": "constructor"
    },
    {
      "anonymous": false,
      "inputs": [
        {
          "indexed": true,
          "internalType": "address",
          "name": "owner",
          "type": "address"
        },
        {
          "indexed": true,
          "internalType": "address",
          "name": "approved",
          "type": "address"
        },
        {
          "indexed": true,
          "internalType": "uint256",
          "name": "tokenId",
          "type": "uint256"
        }
      ],
      "name": "Approval",
      "type": "event"
    },
    {
      "anonymous": false,
      "inputs": [
        {
          "indexed": true,
          "internalType": "address",
          "name": "owner",
          "type": "address"
        },
        {
          "indexed": true,
          "internalType": "address",
          "name": "operator",
          "type": "address"
        },
        {
          "indexed": false,
          "internalType": "bool",
          "name": "approved",
          "type": "bool"
        }
      ],
      "name": "ApprovalForAll",
      "type": "event"
    },
    {
      "anonymous": false,
      "inputs": [
        {
          "indexed": true,
          "internalType": "address",
          "name": "from",
          "type": "address"
        },
        {
          "indexed": true,
          "internalType": "address",
          "name": "to",
          "type": "address"
        },
        {
          "indexed": true,
          "internalType": "uint256",
          "name": "tokenId",
          "type": "uint256"
        }
      ],
      "name": "Transfer",
      "type": "event"
    },
    {
      "inputs": [],
      "name": "MAX_SUPPLY",
      "outputs": [
        {
          "internalType": "uint256",
          "name": "",
          "type": "uint256"
        }
      ],
      "stateMutability": "view",
      "type": "function"
    },
    {
      "inputs": [],
      "name": "MINT_PRICE",
      "outputs": [
        {
          "internalType": "uint256",
          "name": "",
          "type": "uint256"
        }
      ],
      "stateMutability": "view",
      "type": "function"
    },
    {
      "inputs": [
        {
          "internalType": "address",
          "name": "to",
          "type": "address"
        },
        {
          "internalType": "uint256",
          "name": "tokenId",
          "type": "uint256"
        }
      ],
      "name": "approve",
      "outputs": [],
      "stateMutability": "nonpayable",
      "type": "function"
    },
    {
      "inputs": [
        {
          "internalType": "address",
          "name": "owner",
          "type": "address"
        }
      ],
      "name": "balanceOf",
      "outputs": [
        {
          "internalType": "uint256",
          "name": "",
          "type": "uint256"
        }
      ],
      "stateMutability": "view",
      "type": "function"
    },
    {
      "inputs": [
        {
          "internalType": "uint256",
          "name": "tokenId",
          "type": "uint256"
        }
      ],
      "name": "getApproved",
      "outputs": [
        {
          "internalType": "address",
          "name": "",
          "type": "address"
        }
      ],
      "stateMutability": "view",
      "type": "function"
    },
    {
      "inputs": [
        {
          "internalType": "address",
          "name": "owner",
          "type": "address"
        },
        {
          "internalType": "address",
          "name": "operator",
          "type": "address"
        }
      ],
      "name": "isApprovedForAll",
      "outputs": [
        {
          "internalType": "bool",
          "name": "",
          "type": "bool"
        }
      ],
      "stateMutability": "view",
      "type": "function"
    },
    {
      "inputs": [],
      "name": "mint",
      "outputs": [],
      "stateMutability": "payable",
      "type": "function"
    },
    {
      "inputs": [],
      "name": "name",
      "outputs": [
        {
          "internalType": "string",
          "name": "",
          "type": "string"
        }
      ],
      "stateMutability": "view",
      "type": "function"
    },
    {
      "inputs": [
        {
          "internalType": "uint256",
          "name": "tokenId",
          "type": "uint256"
        }
      ],
      "name": "ownerOf",
      "outputs": [
        {
          "internalType": "address",
          "name": "",
          "type": "address"
        }
      ],
      "stateMutability": "view",
      "type": "function"
    },
    {
      "inputs": [
        {
          "internalType": "address",
          "name": "from",
          "type": "address"
        },
        {
          "internalType": "address",
          "name": "to",
          "type": "address"
        },
        {
          "internalType": "uint256",
          "name": "tokenId",
          "type": "uint256"
        }
      ],
      "name": "safeTransferFrom",
      "outputs": [],
      "stateMutability": "nonpayable",
      "type": "function"
    },
    {
      "inputs": [
        {
          "internalType": "address",
          "name": "from",
          "type": "address"
        },
        {
          "internalType": "address",
          "name": "to",
          "type": "address"
        },
        {
          "internalType": "uint256",
          "name": "tokenId",
          "type": "uint256"
        },
        {
          "internalType": "bytes",
          "name": "data",
          "type": "bytes"
        }
      ],
      "name": "safeTransferFrom",
      "outputs": [],
      "stateMutability": "nonpayable",
      "type": "function"
    },
    {
      "inputs": [
        {
          "internalType": "address",
          "name": "operator",
          "type": "address"
        },
        {
          "internalType": "bool",
          "name": "approved",
          "type": "bool"
        }
      ],
      "name": "setApprovalForAll",
      "outputs": [],
      "stateMutability": "nonpayable",
      "type": "function"
    },
    {
      "inputs": [],
      "name": "symbol",
      "outputs": [
        {
          "internalType": "string",
          "name": "",
          "type": "string"
        }
      ],
      "stateMutability": "view",
      "type": "function"
    },
    {
      "inputs": [],
      "name": "totalSupply",
      "outputs": [
        {
          "internalType": "uint256",
          "name": "",
          "type": "uint256"
        }
      ],
      "stateMutability": "view",
      "type": "function"
    },
    {
      "inputs": [
        {
          "internalType": "address",
          "name": "from",
          "type": "address"
        },
        {
          "internalType": "address",
          "name": "to",
          "type": "address"
        },
        {
          "internalType": "uint256",
          "name": "tokenId",
          "type": "uint256"
        }
      ],
      "name": "transferFrom",
      "outputs": [],
      "stateMutability": "nonpayable",
      "type": "function"
    }
  ],
  "bytecode": "0x608060405260016002553480156200001657600080fd5b506040518060400160405280600881526020017f4d79455243373231000000000000000000000000000000000000000000000000815250600090816200005d919062000325565b506040518060400160405280600581526020017f4d594e465400000000000000000000000000000000000000000000000000000081525060019081620000a4919062000325565b506200040c565b600081519050919050565b7f4e487b7100000000000000000000000000000000000000000000000000000000600052604160045260246000fd5b7f4e487b7100000000000000000000000000000000000000000000000000000000600052602260045260246000fd5b600060028204905060018216806200012d57607f821691505b602082108103620001435762000142620000e5565b5b50919050565b60008190508160005260206000209050919050565b60006020601f8301049050919050565b600082821b905092915050565b600060088302620001ad7fffffffffffffffffffffffffffffffffffffffffffffffffffffffffffffffff826200016e565b620001b986836200016e565b95508019841693508086168417925050509392505050565b6000819050919050565b6000819050919050565b60006200020662000200620001fa84620001d1565b620001db565b620001d1565b9050919050565b6000819050919050565b6200022283620001e5565b6200023a62000231826200020d565b8484546200017b565b825550505050565b600090565b6200025162000242565b6200025e81848462000217565b505050565b5b8181101562000286576200027a60008262000247565b60018101905062000264565b5050565b601f821115620002d5576200029f8162000149565b620002aa846200015e565b81016020851015620002ba578190505b620002d2620002c9856200015e565b83018262000263565b50505b505050565b600082821c905092915050565b6000620002fa60001984600802620002da565b1980831691505092915050565b6000620003158383620002e7565b9150826002028217905092915050565b6200033082620000ab565b67ffffffffffffffff8111156200034c576200034b620000b6565b5b62000358825462000114565b620003658282856200028a565b600060209050601f8311600181146200039d576000841562000388578287015190505b62000394858262000307565b86555062000404565b601f198416620003ad8662000149565b60005b82811015620003d757848901518255600182019150602085019450602081019050620003b0565b86831015620003f75784890151620003f3601f891682620002e7565b8355505b6001600288020188555050505b505050505050565b611d84806200041c6000396000f3fe6080604052600436106100e85760003560e01c806342842e0e1161008a578063a22cb46511610059578063a22cb465146102d5578063b88d4fde146102fe578063c002d23d14610327578063e985e9c514610352576100e8565b806342842e0e146102075780636352211e1461023057806370a082311461026d57806395d89b41146102aa576100e8565b80631249c58b116100c65780631249c58b1461017e57806318160ddd1461018857806323b872dd146101b357806332cb6b0c146101dc576100e8565b806306fdde03146100ed578063081812fc14610118578063095ea7b314610155575b600080fd5b3480156100f957600080fd5b5061010261038f565b60405161010f91906111e8565b60405180910390f35b34801561012457600080fd5b5061013f600480360381019061013a9190611254565b610421565b60405161014c91906112c2565b60405180910390f35b34801561016157600080fd5b5061017c60048036038101906101779190611309565b610468565b005b610186610614565b005b34801561019457600080fd5b5061019d6107d0565b6040516101aa9190611358565b60405180910390f35b3480156101bf57600080fd5b506101da60048036038101906101d59190611373565b6107e6565b005b3480156101e857600080fd5b506101f1610a7f565b6040516101fe9190611358565b60405180910390f35b34801561021357600080fd5b5061022e60048036038101906102299190611373565b610a84565b005b34801561023c57600080fd5b5061025760048036038101906102529190611254565b610aa4565b60405161026491906112c2565b60405180910390f35b34801561027957600080fd5b50610294600480360381019061028f91906113c6565b610b55565b6040516102a19190611358565b60405180910390f35b3480156102b657600080fd5b506102bf610c0c565b6040516102cc91906111e8565b60405180910390f35b3480156102e157600080fd5b506102fc60048036038101906102f7919061142b565b610c9e565b005b34801561030a57600080fd5b50610325600480360381019061032091906115a0565b610e09565b005b34801561033357600080fd5b5061033c610e65565b6040516103499190611358565b60405180910390f35b34801561035e57600080fd5b5061037960048036038101906103749190611623565b610e70565b6040516103869190611672565b60405180910390f35b60606000805461039e906116bc565b80601f01602080910402602001604051908101604052809291908181526020018280546103ca906116bc565b80156104175780601f106103ec57610100808354040283529160200191610417565b820191906000526020600020905b8154815290600101906020018083116103fa57829003601f168201915b5050505050905090565b600061042c82610aa4565b506005600083815260200190815260200160002060009054906101000a900473ffffffffffffffffffffffffffffffffffffffff169050919050565b600061047382610aa4565b90508073ffffffffffffffffffffffffffffffffffffffff168373ffffffffffffffffffffffffffffffffffffffff16036104e3576040517f08c379a00000000000000000000000000000000000000000000000000000000081526004016104da90611739565b60405180910390fd5b8073ffffffffffffffffffffffffffffffffffffffff163373ffffffffffffffffffffffffffffffffffffffff16148061052357506105228133610e70565b5b610562576040517f08c379a0000000000000000000000000000000000000000000000000000000008152600401610559906117a5565b60405180910390fd5b826005600084815260200190815260200160002060006101000a81548173ffffffffffffffffffffffffffffffffffffffff021916908373ffffffffffffffffffffffffffffffffffffffff160217905550818373ffffffffffffffffffffffffffffffffffffffff168273ffffffffffffffffffffffffffffffffffffffff167f8c5be1e5ebec7d5bd14f71427d1e84f3dd0314c0f7b2291e5b200ac8c7c3b92560405160405180910390a4505050565b66038d7ea4c68000341461065d576040517f08c379a000000000000000000000000000000000000000000000000000000000815260040161065490611811565b60405180910390fd5b60646106676107d0565b106106a7576040517f08c379a000000000000000000000000000000000000000000000000000000000815260040161069e9061187d565b60405180910390fd5b600060025490506001600260008282546106c191906118cc565b925050819055506001600460003373ffffffffffffffffffffffffffffffffffffffff1673ffffffffffffffffffffffffffffffffffffffff168152602001908152602001600020600082825461071891906118cc565b92505081905550336003600083815260200190815260200160002060006101000a81548173ffffffffffffffffffffffffffffffffffffffff021916908373ffffffffffffffffffffffffffffffffffffffff160217905550803373ffffffffffffffffffffffffffffffffffffffff16600073ffffffffffffffffffffffffffffffffffffffff167fddf252ad1be2c89b69c2b068fc378daa952ba7f163c4a11628f55a4df523b3ef60405160405180910390a450565b600060016002546107e19190611900565b905090565b6107f03382610f04565b61082f576040517f08c379a000000000000000000000000000000000000000000000000000000000815260040161082690611980565b60405180910390fd5b8273ffffffffffffffffffffffffffffffffffffffff1661084f82610aa4565b73ffffffffffffffffffffffffffffffffffffffff16146108a5576040517f08c379a000000000000000000000000000000000000000000000000000000000815260040161089c906119ec565b60405180910390fd5b600073ffffffffffffffffffffffffffffffffffffffff168273ffffffffffffffffffffffffffffffffffffffff1603610914576040517f08c379a000000000000000000000000000000000000000000000000000000000815260040161090b90611a58565b60405180910390fd5b61091f600082610f99565b6001600460008573ffffffffffffffffffffffffffffffffffffffff1673ffffffffffffffffffffffffffffffffffffffff168152602001908152602001600020600082825461096f9190611900565b925050819055506001600460008473ffffffffffffffffffffffffffffffffffffffff1673ffffffffffffffffffffffffffffffffffffffff16815260200190815260200160002060008282546109c691906118cc565b92505081905550816003600083815260200190815260200160002060006101000a81548173ffffffffffffffffffffffffffffffffffffffff021916908373ffffffffffffffffffffffffffffffffffffffff160217905550808273ffffffffffffffffffffffffffffffffffffffff168473ffffffffffffffffffffffffffffffffffffffff167fddf252ad1be2c89b69c2b068fc378daa952ba7f163c4a11628f55a4df523b3ef60405160405180910390a4505050565b606481565b610a9f83838360405180602001604052806000815250610e09565b505050565b6000806003600084815260200190815260200160002060009054906101000a900473ffffffffffffffffffffffffffffffffffffffff169050600073ffffffffffffffffffffffffffffffffffffffff168173ffffffffffffffffffffffffffffffffffffffff1603610b4c576040517f08c379a0000000000000000000000000000000000000000000000000000000008152600401610b4390611ac4565b60405180910390fd5b80915050919050565b60008073ffffffffffffffffffffffffffffffffffffffff168273ffffffffffffffffffffffffffffffffffffffff1603610bc5576040517f08c379a0000000000000000000000000000000000000000000000000000000008152600401610bbc90611b30565b60405180910390fd5b600460008373ffffffffffffffffffffffffffffffffffffffff1673ffffffffffffffffffffffffffffffffffffffff168152602001908152602001600020549050919050565b606060018054610c1b906116bc565b80601f0160208091040260200160405190810160405280929190818152602001828054610c47906116bc565b8015610c945780601f10610c6957610100808354040283529160200191610c94565b820191906000526020600020905b815481529060010190602001808311610c7757829003601f168201915b5050505050905090565b3373ffffffffffffffffffffffffffffffffffffffff168273ffffffffffffffffffffffffffffffffffffffff1603610d0c576040517f08c379a0000000000000000000000000000000000000000000000000000000008152600401610d0390611b9c565b60405180910390fd5b80600660003373ffffffffffffffffffffffffffffffffffffffff1673ffffffffffffffffffffffffffffffffffffffff16815260200190815260200160002060008473ffffffffffffffffffffffffffffffffffffffff1673ffffffffffffffffffffffffffffffffffffffff16815260200190815260200160002060006101000a81548160ff0219169083151502179055508173ffffffffffffffffffffffffffffffffffffffff163373ffffffffffffffffffffffffffffffffffffffff167f17307eab39ab6107e8899845ad3d59bd9653f200f220920489ca2b5937696c3183604051610dfd9190611672565b60405180910390a35050565b610e148484846107e6565b610e2084848484611052565b610e5f576040517f08c379a0000000000000000000000000000000000000000000000000000000008152600401610e5690611c08565b60405180910390fd5b50505050565b66038d7ea4c6800081565b6000600660008473ffffffffffffffffffffffffffffffffffffffff1673ffffffffffffffffffffffffffffffffffffffff16815260200190815260200160002060008373ffffffffffffffffffffffffffffffffffffffff1673ffffffffffffffffffffffffffffffffffffffff16815260200190815260200160002060009054906101000a900460ff16905092915050565b600080610f1083610aa4565b90508073ffffffffffffffffffffffffffffffffffffffff168473ffffffffffffffffffffffffffffffffffffffff161480610f7f57508373ffffffffffffffffffffffffffffffffffffffff16610f6784610421565b73ffffffffffffffffffffffffffffffffffffffff16145b80610f905750610f8f8185610e70565b5b91505092915050565b816005600083815260200190815260200160002060006101000a81548173ffffffffffffffffffffffffffffffffffffffff021916908373ffffffffffffffffffffffffffffffffffffffff160217905550808273ffffffffffffffffffffffffffffffffffffffff1661100c83610aa4565b73ffffffffffffffffffffffffffffffffffffffff167f8c5be1e5ebec7d5bd14f71427d1e84f3dd0314c0f7b2291e5b200ac8c7c3b92560405160405180910390a45050565b6000808473ffffffffffffffffffffffffffffffffffffffff163b111561114b578373ffffffffffffffffffffffffffffffffffffffff1663150b7a02338786866040518563ffffffff1660e01b81526004016110b29493929190611c7d565b6020604051808303816000875af19250505080156110ee57506040513d601f19601f820116820180604052508101906110eb9190611d21565b60015b6110fb5760009050611150565b63150b7a0260e01b7bffffffffffffffffffffffffffffffffffffffffffffffffffffffff1916817bffffffffffffffffffffffffffffffffffffffffffffffffffffffff191614915050611150565b600190505b949350505050565b600081519050919050565b600082825260208201905092915050565b60005b83811015611192578082015181840152602081019050611177565b60008484015250505050565b6000601f19601f8301169050919050565b60006111ba82611158565b6111c48185611163565b93506111d4818560208601611174565b6111dd8161119e565b840191505092915050565b6000602082019050818103600083015261120281846111af565b905092915050565b6000604051905090565b600080fd5b600080fd5b6000819050919050565b6112318161121e565b811461123c57600080fd5b50565b60008135905061124e81611228565b92915050565b60006020828403121561126a57611269611214565b5b60006112788482850161123f565b91505092915050565b600073ffffffffffffffffffffffffffffffffffffffff82169050919050565b60006112ac82611281565b9050919050565b6112bc816112a1565b82525050565b60006020820190506112d760008301846112b3565b92915050565b6112e6816112a1565b81146112f157600080fd5b50565b600081359050611303816112dd565b92915050565b600080604083850312156113205761131f611214565b5b600061132e858286016112f4565b925050602061133f8582860161123f565b9150509250929050565b6113528161121e565b82525050565b600060208201905061136d6000830184611349565b92915050565b60008060006060848603121561138c5761138b611214565b5b600061139a868287016112f4565b93505060206113ab868287016112f4565b92505060406113bc8682870161123f565b9150509250925092565b6000602082840312156113dc576113db611214565b5b60006113ea848285016112f4565b91505092915050565b60008115159050919050565b611408816113f3565b811461141357600080fd5b50565b600081359050611425816113ff565b92915050565b6000806040838503121561144257611441611214565b5b6000611450858286016112f4565b925050602061146185828601611416565b9150509250929050565b600080fd5b600080fd5b7f4e487b7100000000000000000000000000000000000000000000000000000000600052604160045260246000fd5b6114ad8261119e565b810181811067ffffffffffffffff821117156114cc576114cb611475565b5b80604052505050565b60006114df61120a565b90506114eb82826114a4565b919050565b600067ffffffffffffffff82111561150b5761150a611475565b5b6115148261119e565b9050602081019050919050565b82818337600083830152505050565b600061154361153e846114f0565b6114d5565b90508281526020810184848401111561155f5761155e611470565b5b61156a848285611521565b509392505050565b600082601f8301126115875761158661146b565b5b8135611597848260208601611530565b91505092915050565b600080600080608085870312156115ba576115b9611214565b5b60006115c8878288016112f4565b94505060206115d9878288016112f4565b93505060406115ea8782880161123f565b925050606085013567ffffffffffffffff81111561160b5761160a611219565b5b61161787828801611572565b91505092959194509250565b6000806040838503121561163a57611639611214565b5b6000611648858286016112f4565b9250506020611659858286016112f4565b9150509250929050565b61166c816113f3565b82525050565b60006020820190506116876000830184611663565b92915050565b7f4e487b7100000000000000000000000000000000000000000000000000000000600052602260045260246000fd5b600060028204905060018216806116d457607f821691505b6020821081036116e7576116e661168d565b5b50919050565b7f417070726f766520746f2063757272656e74206f776e65720000000000000000600082015250565b6000611723601883611163565b915061172e826116ed565b602082019050919050565b6000602082019050818103600083015261175281611716565b9050919050565b7f4e6f7420617574686f72697a6564000000000000000000000000000000000000600082015250565b600061178f600e83611163565b915061179a82611759565b602082019050919050565b600060208201905081810360008301526117be81611782565b9050919050565b7f4d696e7420707269636520697320302e30303120455448000000000000000000600082015250565b60006117fb601783611163565b9150611806826117c5565b602082019050919050565b6000602082019050818103600083015261182a816117ee565b9050919050565b7f4d617820737570706c7920726561636865640000000000000000000000000000600082015250565b6000611867601283611163565b915061187282611831565b602082019050919050565b600060208201905081810360008301526118968161185a565b9050919050565b7f4e487b7100000000000000000000000000000000000000000000000000000000600052601160045260246000fd5b60006118d78261121e565b91506118e28361121e565b92508282019050808211156118fa576118f961189d565b5b92915050565b600061190b8261121e565b91506119168361121e565b925082820390508181111561192e5761192d61189d565b5b92915050565b7f4e6f74206f776e6572206e6f7220617070726f76656400000000000000000000600082015250565b600061196a601683611163565b915061197582611934565b602082019050919050565b600060208201905081810360008301526119998161195d565b9050919050565b7f57726f6e672066726f6d00000000000000000000000000000000000000000000600082015250565b60006119d6600a83611163565b91506119e1826119a0565b602082019050919050565b60006020820190508181036000830152611a05816119c9565b9050919050565b7f5472616e7366657220746f207a65726f00000000000000000000000000000000600082015250565b6000611a42601083611163565b9150611a4d82611a0c565b602082019050919050565b60006020820190508181036000830152611a7181611a35565b9050919050565b7f546f6b656e20646f6573206e6f74206578697374000000000000000000000000600082015250565b6000611aae601483611163565b9150611ab982611a78565b602082019050919050565b60006020820190508181036000830152611add81611aa1565b9050919050565b7f5a65726f20616464726573730000000000000000000000000000000000000000600082015250565b6000611b1a600c83611163565b9150611b2582611ae4565b602082019050919050565b60006020820190508181036000830152611b4981611b0d565b9050919050565b7f417070726f766520746f2063616c6c6572000000000000000000000000000000600082015250565b6000611b86601183611163565b9150611b9182611b50565b602082019050919050565b60006020820190508181036000830152611bb581611b79565b9050919050565b7f556e7361666520726563697069656e7400000000000000000000000000000000600082015250565b6000611bf2601083611163565b9150611bfd82611bbc565b602082019050919050565b60006020820190508181036000830152611c2181611be5565b9050919050565b600081519050919050565b600082825260208201905092915050565b6000611c4f82611c28565b611c598185611c33565b9350611c69818560208601611174565b611c728161119e565b840191505092915050565b6000608082019050611c9260008301876112b3565b611c9f60208301866112b3565b611cac6040830185611349565b8181036060830152611cbe8184611c44565b905095945050505050565b60007fffffffff0000000000000000000000000000000000000000000000000000000082169050919050565b611cfe81611cc9565b8114611d0957600080fd5b50565b600081519050611d1b81611cf5565b92915050565b600060208284031215611d3757611d36611214565b5b6000611d4584828501611d0c565b9150509291505056fea26469706673582212207e65fbd9dc167bbf4de6f799d91c04f813c6552d35b173d1079c210c2e1f34d164736f6c63430008140033",
  "linkReferences": {},
  "deployedLinkReferences": {}
}